{
  "contractName": "faucet",
  "abi": [
    {
      "constant": true,
      "inputs": [],
      "name": "blockTarget",
      "outputs": [
        {
          "name": "",
          "type": "uint256"
        }
      ],
      "payable": false,
      "stateMutability": "view",
      "type": "function"
    },
    {
      "constant": true,
      "inputs": [],
      "name": "difficulty",
      "outputs": [
        {
          "name": "",
          "type": "int256"
        }
      ],
      "payable": false,
      "stateMutability": "view",
      "type": "function"
    },
    {
      "constant": true,
      "inputs": [],
      "name": "runningCount",
      "outputs": [
        {
          "name": "",
          "type": "uint256"
        }
      ],
      "payable": false,
      "stateMutability": "view",
      "type": "function"
    },
    {
      "constant": true,
      "inputs": [],
      "name": "dropValue",
      "outputs": [
        {
          "name": "",
          "type": "uint256"
        }
      ],
      "payable": false,
      "stateMutability": "view",
      "type": "function"
    },
    {
      "constant": true,
      "inputs": [],
      "name": "lastDrip",
      "outputs": [
        {
          "name": "",
          "type": "uint256"
        }
      ],
      "payable": false,
      "stateMutability": "view",
      "type": "function"
    },
    {
      "inputs": [
        {
          "name": "_dropValue",
          "type": "uint256"
        }
      ],
      "payable": false,
      "stateMutability": "nonpayable",
      "type": "constructor"
    },
    {
      "payable": true,
      "stateMutability": "payable",
      "type": "fallback"
    },
    {
      "anonymous": false,
      "inputs": [
        {
          "indexed": false,
          "name": "rewarded",
          "type": "address"
        },
        {
          "indexed": false,
          "name": "drip",
          "type": "uint256"
        }
      ],
      "name": "Payouts",
      "type": "event"
    },
    {
      "anonymous": false,
      "inputs": [
        {
          "indexed": false,
          "name": "dripset",
          "type": "uint256"
        }
      ],
      "name": "DripSet",
      "type": "event"
    },
    {
      "anonymous": false,
      "inputs": [
        {
          "indexed": false,
          "name": "coolperson",
          "type": "address"
        },
        {
          "indexed": false,
          "name": "paid",
          "type": "uint256"
        }
      ],
      "name": "Donation",
      "type": "event"
    },
    {
      "anonymous": false,
      "inputs": [
        {
          "indexed": false,
          "name": "_foo",
          "type": "int256"
        },
        {
          "indexed": false,
          "name": "_bar",
          "type": "int256"
        },
        {
          "indexed": false,
          "name": "pd",
          "type": "int256"
        },
        {
          "indexed": false,
          "name": "difficulty",
          "type": "bytes32"
        }
      ],
      "name": "NewDiff",
      "type": "event"
    },
    {
      "constant": false,
      "inputs": [
        {
          "name": "_payout",
          "type": "address"
        },
        {
          "name": "nonce",
          "type": "bytes32"
        }
      ],
      "name": "getETC",
      "outputs": [],
      "payable": false,
      "stateMutability": "nonpayable",
      "type": "function"
    },
    {
      "constant": false,
      "inputs": [
        {
          "name": "_dropValue",
          "type": "uint256"
        },
        {
          "name": "_difficulty",
          "type": "int256"
        },
        {
          "name": "_blockTarget",
          "type": "uint256"
        }
      ],
      "name": "dripSet",
      "outputs": [],
      "payable": false,
      "stateMutability": "nonpayable",
      "type": "function"
    },
    {
      "constant": true,
      "inputs": [
        {
          "name": "value",
          "type": "address"
        },
        {
          "name": "nonce",
          "type": "bytes32"
        }
      ],
      "name": "selfTest",
      "outputs": [
        {
          "name": "status",
          "type": "bytes1"
        },
        {
          "name": "isPoW",
          "type": "bool"
        },
        {
          "name": "hash",
          "type": "bytes32"
        },
        {
          "name": "diff",
          "type": "bytes32"
        }
      ],
      "payable": false,
      "stateMutability": "view",
      "type": "function"
    },
    {
      "constant": false,
      "inputs": [],
      "name": "killshot",
      "outputs": [],
      "payable": false,
      "stateMutability": "nonpayable",
      "type": "function"
    }
  ],
  "bytecode": "0x6060604052341561000f57600080fd5b60405160208061092483398101604052808051906020019091905050336000806101000a81548173ffffffffffffffffffffffffffffffffffffffff021916908373ffffffffffffffffffffffffffffffffffffffff16021790555080600281905550600060038190555042600181905550336000806101000a81548173ffffffffffffffffffffffffffffffffffffffff021916908373ffffffffffffffffffffffffffffffffffffffff1602179055507f2f0000000000000000000000000000000000000000000000000000000000000060058190555061012c60048190555050610823806101016000396000f300606060405260043610610099576000357c0100000000000000000000000000000000000000000000000000000000900463ffffffff168063037165f41461010657806319cae4621461012f57806350b7452f146101585780636b9122191461018d5780636f3057d4146101d3578063851e2e231461029a578063a1d82969146102c3578063db820e58146102d8578063eadb825914610301575b7f5d8bc849764969eb1bcc6d0a2f55999d0167c1ccec240a4f39cf664ca9c4148e3334604051808373ffffffffffffffffffffffffffffffffffffffff1673ffffffffffffffffffffffffffffffffffffffff1681526020018281526020019250505060405180910390a1005b341561011157600080fd5b61011961032a565b6040518082815260200191505060405180910390f35b341561013a57600080fd5b610142610330565b6040518082815260200191505060405180910390f35b341561016357600080fd5b61018b6004808035906020019091908035906020019091908035906020019091905050610336565b005b341561019857600080fd5b6101d1600480803573ffffffffffffffffffffffffffffffffffffffff16906020019091908035600019169060200190919050506103e4565b005b34156101de57600080fd5b610217600480803573ffffffffffffffffffffffffffffffffffffffff169060200190919080356000191690602001909190505061056d565b60405180857effffffffffffffffffffffffffffffffffffffffffffffffffffffffffffff19167effffffffffffffffffffffffffffffffffffffffffffffffffffffffffffff19168152602001841515151581526020018360001916600019168152602001826000191660001916815260200194505050505060405180910390f35b34156102a557600080fd5b6102ad610659565b6040518082815260200191505060405180910390f35b34156102ce57600080fd5b6102d661065f565b005b34156102e357600080fd5b6102eb6106f4565b6040518082815260200191505060405180910390f35b341561030c57600080fd5b6103146106fa565b6040518082815260200191505060405180910390f35b60045481565b60055481565b6000809054906101000a900473ffffffffffffffffffffffffffffffffffffffff1673ffffffffffffffffffffffffffffffffffffffff163373ffffffffffffffffffffffffffffffffffffffff1614151561039157600080fd5b8260028190555081600581905550806004819055507ffd023492a913e1a9f4391a876d1d2fc9dc92c3bc6db7a0561fae261be1647b876002546040518082815260200191505060405180910390a1505050565b8181600554600102600019166002834384600060405160200152604051808473ffffffffffffffffffffffffffffffffffffffff1673ffffffffffffffffffffffffffffffffffffffff166c010000000000000000000000000281526014018381526020018260001916600019168152602001935050505060206040518083038160008661646e5a03f1151561047957600080fd5b505060405180519050600019161115151561049357600080fd5b61049b610700565b15156104a657600080fd5b8373ffffffffffffffffffffffffffffffffffffffff166108fc6002549081150290604051600060405180830381858888f1935050505015156104e857600080fd5b6002546003600082825401925050819055507fbb4052119e77555287b3caafdc674e2142fdaecf2b44c0936a63a0298a436bbe84600254604051808373ffffffffffffffffffffffffffffffffffffffff1673ffffffffffffffffffffffffffffffffffffffff1681526020018281526020019250505060405180910390a150505050565b6000806000806002864387600060405160200152604051808473ffffffffffffffffffffffffffffffffffffffff1673ffffffffffffffffffffffffffffffffffffffff166c010000000000000000000000000281526014018381526020018260001916600019168152602001935050505060206040518083038160008661646e5a03f115156105fc57600080fd5b505060405180519050915060055460010260001916826000191610925060055460010290508282827f0100000000000000000000000000000000000000000000000000000000000000929190935093509350935092959194509250565b60035481565b6000809054906101000a900473ffffffffffffffffffffffffffffffffffffffff1673ffffffffffffffffffffffffffffffffffffffff163373ffffffffffffffffffffffffffffffffffffffff161415156106ba57600080fd5b6000809054906101000a900473ffffffffffffffffffffffffffffffffffffffff1673ffffffffffffffffffffffffffffffffffffffff16ff5b60025481565b60015481565b60008060008060055460068190555061074d600454600154420381151561072357fe5b076001037fffffffffffffffffffffffffffffffffffffffffffffffffffffffffffffff9d6107de565b9250826108000291508160065481151561076357fe5b0790508160065401600581905550426001819055507f5a043a252b8d7b664e18bd81cef8b816ff9d17ba4c082f66345206b2a8453dd883838360055460010260405180858152602001848152602001838152602001826000191660001916815260200194505050505060405180910390a16001935050505090565b60008183136107ed57816107ef565b825b9050929150505600a165627a7a72305820a217ac89abebf95d16a5cc032e32ba28ae90298ae38a82e6f2f2963616e428a80029",
  "source": "// simple faucet\n//\n// @authors:\n// Cody Burns <dontpanic@codywburns.com>\n// license: Apache 2.0\n// version: 0.3.0\n\npragma solidity ^0.4.19;\n\n\ncontract owned{\n  function owned () public {\n      owner = msg.sender;\n      \n  }\n  address owner;\n  \n  modifier onlyOwner {\n    require(msg.sender == owner);\n    _;\n  }\n}\n\ncontract faucet is owned {\n\n////////////////\n//Global VARS//////////////////////////////////////////////////////////////////////////\n//////////////\n\n/* int */\n\n  uint public lastDrip;\n  uint public dropValue;\n  uint public runningCount;\n  uint public blockTarget;\n  \n  int public difficulty;\n  int parentDiff;\n  \n\n  modifier PoWcheck( address value, bytes32 nonce ){\n    require(sha256( value , block.number, nonce ) <= bytes32(difficulty));\n    _;\n  \n  }   \n\n  ///////////\n  //EVENTS////////////////////////////////////////////////////////////////////////////\n  //////////\n\n  event Payouts(address rewarded, uint drip);\n  event DripSet(uint dripset);\n  event Donation(address coolperson, uint paid);\n  event NewDiff(int _foo, int _bar, int pd,  bytes32 difficulty);\n \n  ////////////// \n  //Operations////////////////////////////////////////////////////////////////////////\n  //////////////\n\n  /* init */\n  function faucet(uint _dropValue) public {\n    dropValue = _dropValue;\n    runningCount = 0;\n    lastDrip = now;\n    owner = msg.sender;\n    difficulty = int256(21258703883413520253546235528938795582436286247207447304119165813952801144832) ;\n    blockTarget = 300;\n  }\n  \n  function max(int a, int b) private pure returns (int) {\n        return a > b ? a : b;\n  }\n  \n  /* public */\n  function () public payable{\n    Donation(msg.sender, msg.value);\n  }\n\n  function getETC( address _payout, bytes32 nonce ) public PoWcheck( _payout, nonce ) {\n    \n    require(newDiff());\n    \n    _payout.transfer( dropValue );\n    runningCount += dropValue;\n    Payouts(_payout, dropValue);\n  }\n\n  /* onlyOwner */\n\n  function dripSet ( uint _dropValue, int _difficulty, uint _blockTarget ) public onlyOwner{\n    dropValue = _dropValue;\n    difficulty = _difficulty;\n    blockTarget = _blockTarget;\n    DripSet(dropValue);\n  }\n\n  function newDiff() internal returns( bool ) {\n    // adjust PoW to target the blocktarget\n    parentDiff = difficulty;\n    int foo = max( (1 - ( int(now) - int(lastDrip) ) % int(blockTarget)), -99 );\n    int bar =  2048 * foo;\n    int pd = parentDiff % bar;\n    difficulty = parentDiff + bar;\n    lastDrip = now;\n    NewDiff(foo, bar, pd, bytes32(difficulty));\n    return(true);\n  } \n  function selfTest( address value, bytes32 nonce ) \n    public\n    view\n    returns ( byte status , bool isPoW, bytes32 hash, bytes32 diff ){\n      hash = sha256( value , block.number, nonce );\n      isPoW = hash < bytes32(difficulty);    \n      diff = bytes32(difficulty);\n      return ( hex'01', isPoW, hash, diff ) ;  \n  }\n\n  ////////////\n  //SAFETY ////////////////////////////////////////////////////////////////////\n  //////////\n  //safety switches consider removing for production\n  //clean up after contract is no longer needed\n\n  function killshot() onlyOwner public {\n    selfdestruct( owner );\n  }\n}\n",
  "sourcePath": "/freenas-Burns/Freenas-Burns/github/chippr-bots/packages/contracts/contracts/faucet2.sol",
  "compiler": {
    "name": "solc",
    "version": "0.4.20+commit.3155dd80.Emscripten.clang"
  },
  "schemaVersion": "3.0.1",
  "updatedAt": "2019-12-13T00:28:54.112Z",
  "devdoc": {
    "methods": {}
  },
  "userdoc": {
    "methods": {
      "killshot()": {
        "notice": "///////"
      }
    }
  }
}