{
  "contractName": "kvs",
  "abi": [
    {
      "constant": true,
      "inputs": [
        {
          "name": "",
          "type": "bytes32"
        }
      ],
      "name": "store",
      "outputs": [
        {
          "name": "",
          "type": "string"
        }
      ],
      "payable": false,
      "stateMutability": "view",
      "type": "function",
      "signature": "0x654cf88c"
    },
    {
      "constant": false,
      "inputs": [
        {
          "name": "_key",
          "type": "bytes32"
        },
        {
          "name": "_newValue",
          "type": "string"
        }
      ],
      "name": "set",
      "outputs": [
        {
          "name": "",
          "type": "bool"
        }
      ],
      "payable": false,
      "stateMutability": "nonpayable",
      "type": "function",
      "signature": "0xb4800033"
    },
    {
      "constant": false,
      "inputs": [
        {
          "name": "_key",
          "type": "bytes32"
        }
      ],
      "name": "rem",
      "outputs": [
        {
          "name": "",
          "type": "bool"
        }
      ],
      "payable": false,
      "stateMutability": "nonpayable",
      "type": "function",
      "signature": "0xaa7e904e"
    }
  ],
  "bytecode": "0x6060604052336000806101000a81548173ffffffffffffffffffffffffffffffffffffffff021916908373ffffffffffffffffffffffffffffffffffffffff160217905550610600806100536000396000f300606060405260043610610057576000357c0100000000000000000000000000000000000000000000000000000000900463ffffffff168063654cf88c1461005c578063aa7e904e14610092578063b4800033146100c8575b600080fd5b341561006757600080fd5b61007c60046100779036906103fa565b6100fe565b60405161008991906104d7565b60405180910390f35b341561009d57600080fd5b6100b260046100ad9036906103fa565b6101ae565b6040516100bf91906104bc565b60405180910390f35b34156100d357600080fd5b6100e860046100e3903690610423565b610254565b6040516100f591906104bc565b60405180910390f35b60016020528060005260406000206000915090508054600181600116156101000203166002900480601f0160208091040260200160405190810160405280929190818152602001828054600181600116156101000203166002900480156101a65780601f1061017b576101008083540402835291602001916101a6565b820191906000526020600020905b81548152906001019060200180831161018957829003601f168201915b505050505081565b60008060009054906101000a900473ffffffffffffffffffffffffffffffffffffffff1673ffffffffffffffffffffffffffffffffffffffff163373ffffffffffffffffffffffffffffffffffffffff1614151561020b57600080fd5b6020604051908101604052806000815250600160008460001916600019168152602001908152602001600020908051906020019061024a9291906102eb565b5060019050919050565b60008060009054906101000a900473ffffffffffffffffffffffffffffffffffffffff1673ffffffffffffffffffffffffffffffffffffffff163373ffffffffffffffffffffffffffffffffffffffff161415156102b157600080fd5b8160016000856000191660001916815260200190815260200160002090805190602001906102e09291906102eb565b506001905092915050565b828054600181600116156101000203166002900490600052602060002090601f016020900481019282601f1061032c57805160ff191683800117855561035a565b8280016001018555821561035a579182015b8281111561035957825182559160200191906001019061033e565b5b509050610367919061036b565b5090565b61038d91905b80821115610389576000816000905550600101610371565b5090565b90565b600061039c8235610569565b905092915050565b600082601f83011215156103b757600080fd5b81356103ca6103c582610526565b6104f9565b915080825260208301602083018583830111156103e657600080fd5b6103f1838284610573565b50505092915050565b60006020828403121561040c57600080fd5b600061041a84828501610390565b91505092915050565b6000806040838503121561043657600080fd5b600061044485828601610390565b925050602083013567ffffffffffffffff81111561046157600080fd5b61046d858286016103a4565b9150509250929050565b6104808161055d565b82525050565b600061049182610552565b8084526104a5816020860160208601610582565b6104ae816105b5565b602085010191505092915050565b60006020820190506104d16000830184610477565b92915050565b600060208201905081810360008301526104f18184610486565b905092915050565b6000604051905081810181811067ffffffffffffffff8211171561051c57600080fd5b8060405250919050565b600067ffffffffffffffff82111561053d57600080fd5b601f19601f8301169050602081019050919050565b600081519050919050565b60008115159050919050565b6000819050919050565b82818337600083830152505050565b60005b838110156105a0578082015181840152602081019050610585565b838111156105af576000848401525b50505050565b6000601f19601f83011690509190505600a265627a7a723058202cfb1d384e6d8b632307abab57e63361127bc236b854192669d14652e6f334c26c6578706572696d656e74616cf50037",
  "source": "pragma experimental ABIEncoderV2;\npragma solidity >=0.4.20 <0.6.0;\n\ncontract owned{\n  function owned() public {owner = msg.sender;}\n  address owner;\n  modifier onlyOwner {\n          require(msg.sender == owner);\n          _;\n          }\n  }\n\ncontract kvs is owned{\n \n  mapping(bytes32 => string) public store;\n\n  function set(bytes32 _key, string _newValue) public onlyOwner returns(bool){\n      store[_key] = _newValue;\n      return true;\n  }\n  \n  function rem(bytes32 _key) public onlyOwner returns(bool){\n      store[_key] = \"\";\n      return true;\n  }\n  \n}\n",
  "sourcePath": "/freenas-Burns/Freenas-Burns/github/chippr-bots/packages/contracts/contracts/kvs.sol",
  "compiler": {
    "name": "solc",
    "version": "0.4.20+commit.3155dd80.Emscripten.clang"
  },
  "schemaVersion": "3.0.1",
  "updatedAt": "2020-01-17T20:44:51.630Z",
  "devdoc": {
    "methods": {}
  },
  "userdoc": {
    "methods": {}
  }
}