{
  "contractName": "EIP712Base",
  "abi": [
    {
      "inputs": [],
      "name": "ERC712_VERSION",
      "outputs": [
        {
          "internalType": "string",
          "name": "",
          "type": "string"
        }
      ],
      "stateMutability": "view",
      "type": "function"
    },
    {
      "inputs": [],
      "name": "getDomainSeperator",
      "outputs": [
        {
          "internalType": "bytes32",
          "name": "",
          "type": "bytes32"
        }
      ],
      "stateMutability": "view",
      "type": "function"
    },
    {
      "inputs": [],
      "name": "getChainId",
      "outputs": [
        {
          "internalType": "uint256",
          "name": "",
          "type": "uint256"
        }
      ],
      "stateMutability": "view",
      "type": "function"
    }
  ],
  "bytecode": "0x60806040526000805460ff1916905534801561001a57600080fd5b506101108061002a6000396000f3fe6080604052348015600f57600080fd5b5060043610603c5760003560e01c80630f7e597014604157806320379ee51460745780633408e470146085575b600080fd5b6060604051806040016040528060018152602001603160f81b81525081565b604051606b9190608a565b60405180910390f35b6001545b604051908152602001606b565b466078565b6000602080835283518082850152825b8181101560b457858101830151858201604001528201609a565b8181111560c45783604083870101525b50601f01601f191692909201604001939250505056fea2646970667358221220840b9bc72ccbdbb18b9712ff4f016eac6f8b062c2768fb6b882d8928a23ac83064736f6c63430008020033",
  "immutableReferences": {},
  "source": "// SPDX-License-Identifier: MIT\r\n\r\npragma solidity ^0.8.0;\r\n\r\nimport {Initializable} from \"./Initializable.sol\";\r\n\r\ncontract EIP712Base is Initializable {\r\n    struct EIP712Domain {\r\n        string name;\r\n        string version;\r\n        address verifyingContract;\r\n        bytes32 salt;\r\n    }\r\n\r\n    string constant public ERC712_VERSION = \"1\";\r\n\r\n    bytes32 internal constant EIP712_DOMAIN_TYPEHASH = keccak256(\r\n        bytes(\r\n            \"EIP712Domain(string name,string version,address verifyingContract,bytes32 salt)\"\r\n        )\r\n    );\r\n    bytes32 internal domainSeperator;\r\n\r\n    // supposed to be called once while initializing.\r\n    // one of the contracts that inherits this contract follows proxy pattern\r\n    // so it is not possible to do this in a constructor\r\n    function _initializeEIP712(\r\n        string memory name\r\n    )\r\n        internal\r\n        initializer\r\n    {\r\n        _setDomainSeperator(name);\r\n    }\r\n\r\n    function _setDomainSeperator(string memory name) internal {\r\n        domainSeperator = keccak256(\r\n            abi.encode(\r\n                EIP712_DOMAIN_TYPEHASH,\r\n                keccak256(bytes(name)),\r\n                keccak256(bytes(ERC712_VERSION)),\r\n                address(this),\r\n                bytes32(getChainId())\r\n            )\r\n        );\r\n    }\r\n\r\n    function getDomainSeperator() public view returns (bytes32) {\r\n        return domainSeperator;\r\n    }\r\n\r\n    function getChainId() public view returns (uint256) {\r\n        uint256 id;\r\n        assembly {\r\n            id := chainid()\r\n        }\r\n        return id;\r\n    }\r\n\r\n    /**\r\n     * Accept message hash and returns hash message in EIP712 compatible form\r\n     * So that it can be used to recover signer from signature signed using EIP712 formatted data\r\n     * https://eips.ethereum.org/EIPS/eip-712\r\n     * \"\\\\x19\" makes the encoding deterministic\r\n     * \"\\\\x01\" is the version byte to make it compatible to EIP-191\r\n     */\r\n    function toTypedMessageHash(bytes32 messageHash)\r\n        internal\r\n        view\r\n        returns (bytes32)\r\n    {\r\n        return\r\n            keccak256(\r\n                abi.encodePacked(\"\\x19\\x01\", getDomainSeperator(), messageHash)\r\n            );\r\n    }\r\n}",
  "sourcePath": "C:\\Users\\cody.burns\\Documents\\github\\generative-art-node\\contracts\\common\\meta-transactions\\EIP712Base.sol",
  "compiler": {
    "name": "solc",
    "version": "0.8.2+commit.661d1103.Emscripten.clang"
  },
  "schemaVersion": "3.4.3",
  "updatedAt": "2021-09-10T01:36:35.163Z",
  "devdoc": {
    "kind": "dev",
    "methods": {},
    "version": 1
  },
  "userdoc": {
    "kind": "user",
    "methods": {},
    "version": 1
  }
}