{
  "contractName": "ERC1155Tradable",
  "abi": [
    {
      "inputs": [
        {
          "internalType": "string",
          "name": "_name",
          "type": "string"
        },
        {
          "internalType": "string",
          "name": "_symbol",
          "type": "string"
        },
        {
          "internalType": "string",
          "name": "_uri",
          "type": "string"
        }
      ],
      "stateMutability": "nonpayable",
      "type": "constructor"
    },
    {
      "anonymous": false,
      "inputs": [
        {
          "indexed": true,
          "internalType": "address",
          "name": "account",
          "type": "address"
        },
        {
          "indexed": true,
          "internalType": "address",
          "name": "operator",
          "type": "address"
        },
        {
          "indexed": false,
          "internalType": "bool",
          "name": "approved",
          "type": "bool"
        }
      ],
      "name": "ApprovalForAll",
      "type": "event"
    },
    {
      "anonymous": false,
      "inputs": [
        {
          "indexed": false,
          "internalType": "address",
          "name": "userAddress",
          "type": "address"
        },
        {
          "indexed": false,
          "internalType": "address payable",
          "name": "relayerAddress",
          "type": "address"
        },
        {
          "indexed": false,
          "internalType": "bytes",
          "name": "functionSignature",
          "type": "bytes"
        }
      ],
      "name": "MetaTransactionExecuted",
      "type": "event"
    },
    {
      "anonymous": false,
      "inputs": [
        {
          "indexed": true,
          "internalType": "address",
          "name": "previousOwner",
          "type": "address"
        },
        {
          "indexed": true,
          "internalType": "address",
          "name": "newOwner",
          "type": "address"
        }
      ],
      "name": "OwnershipTransferred",
      "type": "event"
    },
    {
      "anonymous": false,
      "inputs": [
        {
          "indexed": true,
          "internalType": "address",
          "name": "operator",
          "type": "address"
        },
        {
          "indexed": true,
          "internalType": "address",
          "name": "from",
          "type": "address"
        },
        {
          "indexed": true,
          "internalType": "address",
          "name": "to",
          "type": "address"
        },
        {
          "indexed": false,
          "internalType": "uint256[]",
          "name": "ids",
          "type": "uint256[]"
        },
        {
          "indexed": false,
          "internalType": "uint256[]",
          "name": "values",
          "type": "uint256[]"
        }
      ],
      "name": "TransferBatch",
      "type": "event"
    },
    {
      "anonymous": false,
      "inputs": [
        {
          "indexed": true,
          "internalType": "address",
          "name": "operator",
          "type": "address"
        },
        {
          "indexed": true,
          "internalType": "address",
          "name": "from",
          "type": "address"
        },
        {
          "indexed": true,
          "internalType": "address",
          "name": "to",
          "type": "address"
        },
        {
          "indexed": false,
          "internalType": "uint256",
          "name": "id",
          "type": "uint256"
        },
        {
          "indexed": false,
          "internalType": "uint256",
          "name": "value",
          "type": "uint256"
        }
      ],
      "name": "TransferSingle",
      "type": "event"
    },
    {
      "anonymous": false,
      "inputs": [
        {
          "indexed": false,
          "internalType": "string",
          "name": "value",
          "type": "string"
        },
        {
          "indexed": true,
          "internalType": "uint256",
          "name": "id",
          "type": "uint256"
        }
      ],
      "name": "URI",
      "type": "event"
    },
    {
      "inputs": [],
      "name": "ERC712_VERSION",
      "outputs": [
        {
          "internalType": "string",
          "name": "",
          "type": "string"
        }
      ],
      "stateMutability": "view",
      "type": "function",
      "constant": true
    },
    {
      "inputs": [
        {
          "internalType": "address",
          "name": "account",
          "type": "address"
        },
        {
          "internalType": "uint256",
          "name": "id",
          "type": "uint256"
        }
      ],
      "name": "balanceOf",
      "outputs": [
        {
          "internalType": "uint256",
          "name": "",
          "type": "uint256"
        }
      ],
      "stateMutability": "view",
      "type": "function",
      "constant": true
    },
    {
      "inputs": [
        {
          "internalType": "address[]",
          "name": "accounts",
          "type": "address[]"
        },
        {
          "internalType": "uint256[]",
          "name": "ids",
          "type": "uint256[]"
        }
      ],
      "name": "balanceOfBatch",
      "outputs": [
        {
          "internalType": "uint256[]",
          "name": "",
          "type": "uint256[]"
        }
      ],
      "stateMutability": "view",
      "type": "function",
      "constant": true
    },
    {
      "inputs": [
        {
          "internalType": "uint256",
          "name": "",
          "type": "uint256"
        }
      ],
      "name": "creators",
      "outputs": [
        {
          "internalType": "address",
          "name": "",
          "type": "address"
        }
      ],
      "stateMutability": "view",
      "type": "function",
      "constant": true
    },
    {
      "inputs": [
        {
          "internalType": "address",
          "name": "userAddress",
          "type": "address"
        },
        {
          "internalType": "bytes",
          "name": "functionSignature",
          "type": "bytes"
        },
        {
          "internalType": "bytes32",
          "name": "sigR",
          "type": "bytes32"
        },
        {
          "internalType": "bytes32",
          "name": "sigS",
          "type": "bytes32"
        },
        {
          "internalType": "uint8",
          "name": "sigV",
          "type": "uint8"
        }
      ],
      "name": "executeMetaTransaction",
      "outputs": [
        {
          "internalType": "bytes",
          "name": "",
          "type": "bytes"
        }
      ],
      "stateMutability": "payable",
      "type": "function",
      "payable": true
    },
    {
      "inputs": [],
      "name": "getChainId",
      "outputs": [
        {
          "internalType": "uint256",
          "name": "",
          "type": "uint256"
        }
      ],
      "stateMutability": "view",
      "type": "function",
      "constant": true
    },
    {
      "inputs": [],
      "name": "getDomainSeperator",
      "outputs": [
        {
          "internalType": "bytes32",
          "name": "",
          "type": "bytes32"
        }
      ],
      "stateMutability": "view",
      "type": "function",
      "constant": true
    },
    {
      "inputs": [
        {
          "internalType": "address",
          "name": "user",
          "type": "address"
        }
      ],
      "name": "getNonce",
      "outputs": [
        {
          "internalType": "uint256",
          "name": "nonce",
          "type": "uint256"
        }
      ],
      "stateMutability": "view",
      "type": "function",
      "constant": true
    },
    {
      "inputs": [],
      "name": "name",
      "outputs": [
        {
          "internalType": "string",
          "name": "",
          "type": "string"
        }
      ],
      "stateMutability": "view",
      "type": "function",
      "constant": true
    },
    {
      "inputs": [],
      "name": "owner",
      "outputs": [
        {
          "internalType": "address",
          "name": "",
          "type": "address"
        }
      ],
      "stateMutability": "view",
      "type": "function",
      "constant": true
    },
    {
      "inputs": [],
      "name": "renounceOwnership",
      "outputs": [],
      "stateMutability": "nonpayable",
      "type": "function"
    },
    {
      "inputs": [
        {
          "internalType": "address",
          "name": "from",
          "type": "address"
        },
        {
          "internalType": "address",
          "name": "to",
          "type": "address"
        },
        {
          "internalType": "uint256[]",
          "name": "ids",
          "type": "uint256[]"
        },
        {
          "internalType": "uint256[]",
          "name": "amounts",
          "type": "uint256[]"
        },
        {
          "internalType": "bytes",
          "name": "data",
          "type": "bytes"
        }
      ],
      "name": "safeBatchTransferFrom",
      "outputs": [],
      "stateMutability": "nonpayable",
      "type": "function"
    },
    {
      "inputs": [
        {
          "internalType": "address",
          "name": "from",
          "type": "address"
        },
        {
          "internalType": "address",
          "name": "to",
          "type": "address"
        },
        {
          "internalType": "uint256",
          "name": "id",
          "type": "uint256"
        },
        {
          "internalType": "uint256",
          "name": "amount",
          "type": "uint256"
        },
        {
          "internalType": "bytes",
          "name": "data",
          "type": "bytes"
        }
      ],
      "name": "safeTransferFrom",
      "outputs": [],
      "stateMutability": "nonpayable",
      "type": "function"
    },
    {
      "inputs": [
        {
          "internalType": "address",
          "name": "operator",
          "type": "address"
        },
        {
          "internalType": "bool",
          "name": "approved",
          "type": "bool"
        }
      ],
      "name": "setApprovalForAll",
      "outputs": [],
      "stateMutability": "nonpayable",
      "type": "function"
    },
    {
      "inputs": [
        {
          "internalType": "bytes4",
          "name": "interfaceId",
          "type": "bytes4"
        }
      ],
      "name": "supportsInterface",
      "outputs": [
        {
          "internalType": "bool",
          "name": "",
          "type": "bool"
        }
      ],
      "stateMutability": "view",
      "type": "function",
      "constant": true
    },
    {
      "inputs": [],
      "name": "symbol",
      "outputs": [
        {
          "internalType": "string",
          "name": "",
          "type": "string"
        }
      ],
      "stateMutability": "view",
      "type": "function",
      "constant": true
    },
    {
      "inputs": [
        {
          "internalType": "uint256",
          "name": "",
          "type": "uint256"
        }
      ],
      "name": "tokenSupply",
      "outputs": [
        {
          "internalType": "uint256",
          "name": "",
          "type": "uint256"
        }
      ],
      "stateMutability": "view",
      "type": "function",
      "constant": true
    },
    {
      "inputs": [
        {
          "internalType": "address",
          "name": "newOwner",
          "type": "address"
        }
      ],
      "name": "transferOwnership",
      "outputs": [],
      "stateMutability": "nonpayable",
      "type": "function"
    },
    {
      "inputs": [
        {
          "internalType": "uint256",
          "name": "_id",
          "type": "uint256"
        }
      ],
      "name": "uri",
      "outputs": [
        {
          "internalType": "string",
          "name": "",
          "type": "string"
        }
      ],
      "stateMutability": "view",
      "type": "function",
      "constant": true
    },
    {
      "inputs": [
        {
          "internalType": "uint256",
          "name": "_id",
          "type": "uint256"
        }
      ],
      "name": "totalSupply",
      "outputs": [
        {
          "internalType": "uint256",
          "name": "",
          "type": "uint256"
        }
      ],
      "stateMutability": "view",
      "type": "function",
      "constant": true
    },
    {
      "inputs": [
        {
          "internalType": "string",
          "name": "_newURI",
          "type": "string"
        }
      ],
      "name": "setURI",
      "outputs": [],
      "stateMutability": "nonpayable",
      "type": "function"
    },
    {
      "inputs": [
        {
          "internalType": "uint256",
          "name": "_tokenId",
          "type": "uint256"
        },
        {
          "internalType": "string",
          "name": "_newURI",
          "type": "string"
        }
      ],
      "name": "setCustomURI",
      "outputs": [],
      "stateMutability": "nonpayable",
      "type": "function"
    },
    {
      "inputs": [
        {
          "internalType": "address",
          "name": "_initialOwner",
          "type": "address"
        },
        {
          "internalType": "uint256",
          "name": "_id",
          "type": "uint256"
        },
        {
          "internalType": "uint256",
          "name": "_initialSupply",
          "type": "uint256"
        },
        {
          "internalType": "string",
          "name": "_uri",
          "type": "string"
        },
        {
          "internalType": "bytes",
          "name": "_data",
          "type": "bytes"
        }
      ],
      "name": "create",
      "outputs": [
        {
          "internalType": "uint256",
          "name": "",
          "type": "uint256"
        }
      ],
      "stateMutability": "nonpayable",
      "type": "function"
    },
    {
      "inputs": [
        {
          "internalType": "address",
          "name": "_to",
          "type": "address"
        },
        {
          "internalType": "uint256",
          "name": "_id",
          "type": "uint256"
        },
        {
          "internalType": "uint256",
          "name": "_quantity",
          "type": "uint256"
        },
        {
          "internalType": "bytes",
          "name": "_data",
          "type": "bytes"
        }
      ],
      "name": "mint",
      "outputs": [],
      "stateMutability": "nonpayable",
      "type": "function"
    },
    {
      "inputs": [
        {
          "internalType": "address",
          "name": "_to",
          "type": "address"
        },
        {
          "internalType": "uint256[]",
          "name": "_ids",
          "type": "uint256[]"
        },
        {
          "internalType": "uint256[]",
          "name": "_quantities",
          "type": "uint256[]"
        },
        {
          "internalType": "bytes",
          "name": "_data",
          "type": "bytes"
        }
      ],
      "name": "batchMint",
      "outputs": [],
      "stateMutability": "nonpayable",
      "type": "function"
    },
    {
      "inputs": [
        {
          "internalType": "address",
          "name": "_to",
          "type": "address"
        },
        {
          "internalType": "uint256[]",
          "name": "_ids",
          "type": "uint256[]"
        }
      ],
      "name": "setCreator",
      "outputs": [],
      "stateMutability": "nonpayable",
      "type": "function"
    },
    {
      "inputs": [
        {
          "internalType": "address",
          "name": "_owner",
          "type": "address"
        },
        {
          "internalType": "address",
          "name": "_operator",
          "type": "address"
        }
      ],
      "name": "isApprovedForAll",
      "outputs": [
        {
          "internalType": "bool",
          "name": "isOperator",
          "type": "bool"
        }
      ],
      "stateMutability": "view",
      "type": "function",
      "constant": true
    },
    {
      "inputs": [
        {
          "internalType": "uint256",
          "name": "_id",
          "type": "uint256"
        }
      ],
      "name": "exists",
      "outputs": [
        {
          "internalType": "bool",
          "name": "",
          "type": "bool"
        }
      ],
      "stateMutability": "view",
      "type": "function",
      "constant": true
    }
  ],
  "bytecode": "0x60806040526003805460ff191690553480156200001b57600080fd5b50604051620032cb380380620032cb8339810160408190526200003e9162000477565b806200004a8162000132565b506200005f620000596200014b565b62000168565b82516200007490600b9060208601906200031e565b5081516200008a90600c9060208501906200031e565b5062000129600b80546200009e9062000504565b80601f0160208091040260200160405190810160405280929190818152602001828054620000cc9062000504565b80156200011d5780601f10620000f1576101008083540402835291602001916200011d565b820191906000526020600020905b815481529060010190602001808311620000ff57829003601f168201915b5050620001ba92505050565b50505062000557565b8051620001479060029060208401906200031e565b5050565b6000620001626200021e60201b620014b21760201c565b90505b90565b600680546001600160a01b038381166001600160a01b0319831681179093556040519116919082907f8be0079c531659141344cd1fd0a4f28419497f9722a3daafe3b4186f6b6457e090600090a35050565b60035460ff1615620002035760405162461bcd60e51b815260206004820152600e60248201526d185b1c9958591e481a5b9a5d195960921b604482015260640160405180910390fd5b6200020e816200027c565b506003805460ff19166001179055565b6000333014156200027757600080368080601f0160208091040260200160405190810160405280939291908181526020018383808284376000920191909152505050503601516001600160a01b03169150620001659050565b503390565b6040518060800160405280604f81526020016200327c604f9139805160209182012082519282019290922060408051808201825260018152603160f81b90840152805180840194909452838101919091527fc89efdaa54c0f20c7adf612882df0950f5a951637e0307cdcb4c672f298b8bc660608401523060808401524660a0808501919091528151808503909101815260c090930190528151910120600455565b8280546200032c9062000504565b90600052602060002090601f0160209004810192826200035057600085556200039b565b82601f106200036b57805160ff19168380011785556200039b565b828001600101855582156200039b579182015b828111156200039b5782518255916020019190600101906200037e565b50620003a9929150620003ad565b5090565b5b80821115620003a95760008155600101620003ae565b600082601f830112620003d5578081fd5b81516001600160401b0380821115620003f257620003f262000541565b604051601f8301601f19908116603f011681019082821181831017156200041d576200041d62000541565b8160405283815260209250868385880101111562000439578485fd5b8491505b838210156200045c57858201830151818301840152908201906200043d565b838211156200046d57848385830101525b9695505050505050565b6000806000606084860312156200048c578283fd5b83516001600160401b0380821115620004a3578485fd5b620004b187838801620003c4565b94506020860151915080821115620004c7578384fd5b620004d587838801620003c4565b93506040860151915080821115620004eb578283fd5b50620004fa86828701620003c4565b9150509250925092565b6002810460018216806200051957607f821691505b602082108114156200053b57634e487b7160e01b600052602260045260246000fd5b50919050565b634e487b7160e01b600052604160045260246000fd5b612d1580620005676000396000f3fe6080604052600436106101465760003560e01c8062fdd58e1461014b57806301ffc9a71461017e57806302fe5305146101ae57806306fdde03146101d05780630c53c51c146101f25780630e89341c146102055780630f7e59701461022557806320379ee5146102525780632693ebf2146102675780632d0335ab146102945780632eb2c2d6146102ca5780633408e470146102ea57806336a100d5146102fd5780633adf80b41461031d5780634e1273f41461033d5780634f558e791461036a578063715018a61461038a578063731133e91461039f5780638da5cb5b146103bf57806395d89b41146103e1578063a22cb465146103f6578063b48ab8b614610416578063bd85b03914610436578063cd53d08e14610463578063d2a6b51a14610499578063e985e9c5146104b9578063f242432a146104d9578063f2fde38b146104f9575b600080fd5b34801561015757600080fd5b5061016b610166366004612487565b610519565b6040519081526020015b60405180910390f35b34801561018a57600080fd5b5061019e61019936600461261d565b6105b3565b6040519015158152602001610175565b3480156101ba57600080fd5b506101ce6101c9366004612671565b610607565b005b3480156101dc57600080fd5b506101e5610652565b60405161017591906128c1565b6101e561020036600461240d565b6106e0565b34801561021157600080fd5b506101e56102203660046126a3565b6108c9565b34801561023157600080fd5b506101e5604051806040016040528060018152602001603160f81b81525081565b34801561025e57600080fd5b5061016b610a88565b34801561027357600080fd5b5061016b6102823660046126a3565b60096020526000908152604090205481565b3480156102a057600080fd5b5061016b6102af366004612196565b6001600160a01b031660009081526005602052604090205490565b3480156102d657600080fd5b506101ce6102e53660046121ea565b610a8f565b3480156102f657600080fd5b504661016b565b34801561030957600080fd5b5061016b610318366004612506565b610b38565b34801561032957600080fd5b506101ce6103383660046126bb565b610c81565b34801561034957600080fd5b5061035d61035836600461255d565b610d20565b6040516101759190612889565b34801561037657600080fd5b5061019e6103853660046126a3565b610e81565b34801561039657600080fd5b506101ce610e8c565b3480156103ab57600080fd5b506101ce6103ba3660046124b2565b610ed7565b3480156103cb57600080fd5b506103d4610f57565b60405161017591906127a9565b3480156103ed57600080fd5b506101e5610f66565b34801561040257600080fd5b506101ce6104113660046123dc565b610f73565b34801561042257600080fd5b506101ce610431366004612346565b611087565b34801561044257600080fd5b5061016b6104513660046126a3565b60009081526009602052604090205490565b34801561046f57600080fd5b506103d461047e3660046126a3565b6008602052600090815260409020546001600160a01b031681565b3480156104a557600080fd5b506101ce6104b43660046122f9565b6111d3565b3480156104c557600080fd5b5061019e6104d43660046121b2565b611298565b3480156104e557600080fd5b506101ce6104f4366004612293565b61136c565b34801561050557600080fd5b506101ce610514366004612196565b611405565b60006001600160a01b03831661058a5760405162461bcd60e51b815260206004820152602b60248201527f455243313135353a2062616c616e636520717565727920666f7220746865207a60448201526a65726f206164647265737360a81b60648201526084015b60405180910390fd5b506000818152602081815260408083206001600160a01b03861684529091529020545b92915050565b60006001600160e01b03198216636cdb3d1360e11b14806105e457506001600160e01b031982166303a24d0760e21b145b806105ff57506301ffc9a760e01b6001600160e01b03198316145b90505b919050565b61060f61150e565b6001600160a01b0316610620610f57565b6001600160a01b0316146106465760405162461bcd60e51b8152600401610581906129ab565b61064f8161151d565b50565b600b805461065f90612b21565b80601f016020809104026020016040519081016040528092919081815260200182805461068b90612b21565b80156106d85780601f106106ad576101008083540402835291602001916106d8565b820191906000526020600020905b8154815290600101906020018083116106bb57829003601f168201915b505050505081565b60408051606081810183526001600160a01b0388166000818152600560209081529085902054845283015291810186905261071e8782878787611534565b6107745760405162461bcd60e51b815260206004820152602160248201527f5369676e657220616e64207369676e617475726520646f206e6f74206d6174636044820152600d60fb1b6064820152608401610581565b6001600160a01b038716600090815260056020526040902054610798906001611624565b6001600160a01b0388166000908152600560205260409081902091909155517f5845892132946850460bff5a0083f71031bc5bf9aadcd40f1de79423eac9b10b906107e890899033908a906127bd565b60405180910390a1600080306001600160a01b0316888a604051602001610810929190612777565b60408051601f198184030181529082905261082a9161275b565b6000604051808303816000865af19150503d8060008114610867576040519150601f19603f3d011682016040523d82523d6000602084013e61086c565b606091505b5091509150816108bd5760405162461bcd60e51b815260206004820152601c60248201527b119d5b98dd1a5bdb8818d85b1b081b9bdd081cdd58d8d95cdcd99d5b60221b6044820152606401610581565b98975050505050505050565b60606108d482611637565b61092f5760405162461bcd60e51b815260206004820152602660248201527f455243313135355472616461626c65237572693a204e4f4e4558495354454e546044820152652faa27a5a2a760d11b6064820152608401610581565b6000828152600a60205260408120805461094890612b21565b80601f016020809104026020016040519081016040528092919081815260200182805461097490612b21565b80156109c15780601f10610996576101008083540402835291602001916109c1565b820191906000526020600020905b8154815290600101906020018083116109a457829003601f168201915b50505050509050600081511115610a71576000838152600a6020526040902080546109eb90612b21565b80601f0160208091040260200160405190810160405280929190818152602001828054610a1790612b21565b8015610a645780601f10610a3957610100808354040283529160200191610a64565b820191906000526020600020905b815481529060010190602001808311610a4757829003601f168201915b5050505050915050610602565b610a7a83611654565b915050610602565b50919050565b6004545b90565b610a9761150e565b6001600160a01b0316856001600160a01b03161480610abd5750610abd856104d461150e565b610b245760405162461bcd60e51b815260206004820152603260248201527f455243313135353a207472616e736665722063616c6c6572206973206e6f74206044820152711bdddb995c881b9bdc88185c1c1c9bdd995960721b6064820152608401610581565b610b3185858585856116e8565b5050505050565b6000610b4261150e565b6001600160a01b0316610b53610f57565b6001600160a01b031614610b795760405162461bcd60e51b8152600401610581906129ab565b610b8285611637565b15610bca5760405162461bcd60e51b8152602060048201526018602482015277746f6b656e205f696420616c72656164792065786973747360401b6044820152606401610581565b610bd261150e565b600086815260086020526040902080546001600160a01b0319166001600160a01b0392909216919091179055825115610c5e576000858152600a602090815260409091208451610c249286019061201d565b50847f6bb7ff708619ba0610cba295a58592e0451dee2622938c8755667688daf3529b84604051610c5591906128c1565b60405180910390a25b610c6a868686856118ab565b505050600082815260096020526040902055919050565b81610c8a61150e565b6000828152600860205260409020546001600160a01b03908116911614610cc35760405162461bcd60e51b815260040161058190612a69565b6000838152600a602090815260409091208351610ce29285019061201d565b50827f6bb7ff708619ba0610cba295a58592e0451dee2622938c8755667688daf3529b83604051610d1391906128c1565b60405180910390a2505050565b60608151835114610d855760405162461bcd60e51b815260206004820152602960248201527f455243313135353a206163636f756e747320616e6420696473206c656e677468604482015268040dad2e6dac2e8c6d60bb1b6064820152608401610581565b600083516001600160401b03811115610dae57634e487b7160e01b600052604160045260246000fd5b604051908082528060200260200182016040528015610dd7578160200160208202803683370190505b50905060005b8451811015610e7957610e3e858281518110610e0957634e487b7160e01b600052603260045260246000fd5b6020026020010151858381518110610e3157634e487b7160e01b600052603260045260246000fd5b6020026020010151610519565b828281518110610e5e57634e487b7160e01b600052603260045260246000fd5b6020908102919091010152610e7281612b82565b9050610ddd565b509392505050565b60006105ff82611637565b610e9461150e565b6001600160a01b0316610ea5610f57565b6001600160a01b031614610ecb5760405162461bcd60e51b8152600401610581906129ab565b610ed56000611986565b565b82610ee061150e565b6000828152600860205260409020546001600160a01b03908116911614610f195760405162461bcd60e51b815260040161058190612a69565b610f25858585856118ab565b600084815260096020526040902054610f3e9084611624565b6000948552600960205260409094209390935550505050565b6006546001600160a01b031690565b600c805461065f90612b21565b816001600160a01b0316610f8561150e565b6001600160a01b03161415610fee5760405162461bcd60e51b815260206004820152602960248201527f455243313135353a2073657474696e6720617070726f76616c20737461747573604482015268103337b91039b2b63360b91b6064820152608401610581565b8060016000610ffb61150e565b6001600160a01b03908116825260208083019390935260409182016000908120918716808252919093529120805460ff19169215159290921790915561103f61150e565b6001600160a01b03167f17307eab39ab6107e8899845ad3d59bd9653f200f220920489ca2b5937696c318360405161107b911515815260200190565b60405180910390a35050565b60005b83518110156111c05760008482815181106110b557634e487b7160e01b600052603260045260246000fd5b602002602001015190506110c761150e565b6000828152600860205260409020546001600160a01b039081169116146111485760405162461bcd60e51b815260206004820152602f60248201527f455243313135355472616461626c652362617463684d696e743a204f4e4c595f60448201526e10d491505513d497d0531313d5d151608a1b6064820152608401610581565b600084838151811061116a57634e487b7160e01b600052603260045260246000fd5b6020026020010151905061119a81600960008581526020019081526020016000205461162490919063ffffffff16565b6000928352600960205260409092209190915550806111b881612b82565b91505061108a565b506111cd848484846119d8565b50505050565b6001600160a01b03821661123e5760405162461bcd60e51b815260206004820152602c60248201527f455243313135355472616461626c652373657443726561746f723a20494e564160448201526b2624a22fa0a2222922a9a99760a11b6064820152608401610581565b60005b815181101561129357600082828151811061126c57634e487b7160e01b600052603260045260246000fd5b602002602001015190506112808482611b4a565b508061128b81612b82565b915050611241565b505050565b60075460405163c455279160e01b81526000916001600160a01b039081169190841690829063c4552791906112d19088906004016127a9565b60206040518083038186803b1580156112e957600080fd5b505afa1580156112fd573d6000803e3d6000fd5b505050506040513d601f19601f820116820180604052508101906113219190612655565b6001600160a01b0316141561133a5760019150506105ad565b6001600160a01b0380851660009081526001602090815260408083209387168352929052205460ff165b949350505050565b61137461150e565b6001600160a01b0316856001600160a01b0316148061139a575061139a856104d461150e565b6113f85760405162461bcd60e51b815260206004820152602960248201527f455243313135353a2063616c6c6572206973206e6f74206f776e6572206e6f7260448201526808185c1c1c9bdd995960ba1b6064820152608401610581565b610b318585858585611bbb565b61140d61150e565b6001600160a01b031661141e610f57565b6001600160a01b0316146114445760405162461bcd60e51b8152600401610581906129ab565b6001600160a01b0381166114a95760405162461bcd60e51b815260206004820152602660248201527f4f776e61626c653a206e6577206f776e657220697320746865207a65726f206160448201526564647265737360d01b6064820152608401610581565b61064f81611986565b60003330141561150957600080368080601f0160208091040260200160405190810160405280939291908181526020018383808284376000920191909152505050503601516001600160a01b03169150610a8c9050565b503390565b60006115186114b2565b905090565b805161153090600290602084019061201d565b5050565b60006001600160a01b03861661159a5760405162461bcd60e51b815260206004820152602560248201527f4e61746976654d6574615472616e73616374696f6e3a20494e56414c49445f5360448201526424a3a722a960d91b6064820152608401610581565b60016115ad6115a887611ce3565b611d60565b6040805160008152602081018083529290925260ff851690820152606081018690526080810185905260a0016020604051602081039080840390855afa1580156115fb573d6000803e3d6000fd5b505050602060405103516001600160a01b0316866001600160a01b031614905095945050505050565b60006116308284612add565b9392505050565b6000908152600860205260409020546001600160a01b0316151590565b60606002805461166390612b21565b80601f016020809104026020016040519081016040528092919081815260200182805461168f90612b21565b80156116dc5780601f106116b1576101008083540402835291602001916116dc565b820191906000526020600020905b8154815290600101906020018083116116bf57829003601f168201915b50505050509050919050565b81518351146117095760405162461bcd60e51b8152600401610581906129e0565b6001600160a01b03841661172f5760405162461bcd60e51b81526004016105819061291c565b600061173961150e565b905060005b845181101561183d57600085828151811061176957634e487b7160e01b600052603260045260246000fd5b60200260200101519050600085838151811061179557634e487b7160e01b600052603260045260246000fd5b602090810291909101810151600084815280835260408082206001600160a01b038e1683529093529190912054909150818110156117e55760405162461bcd60e51b815260040161058190612961565b6000838152602081815260408083206001600160a01b038e8116855292528083208585039055908b16825281208054849290611822908490612add565b925050819055505050508061183690612b82565b905061173e565b50846001600160a01b0316866001600160a01b0316826001600160a01b03167f4a39dc06d4c0dbc64b70af90fd698a233a518aa5d07e595d983b8c0526c8f7fb878760405161188d92919061289c565b60405180910390a46118a3818787878787611d8f565b505050505050565b6001600160a01b0384166118d15760405162461bcd60e51b815260040161058190612a28565b60006118db61150e565b90506118f6816000876118ed88611efa565b610b3188611efa565b6000848152602081815260408083206001600160a01b038916845290915281208054859290611926908490612add565b909155505060408051858152602081018590526001600160a01b0380881692600092918516917fc3d58168c5ae7397731d063d5bbf3d657854427343f4c083240f7aacaa2d0f62910160405180910390a4610b3181600087878787611f53565b600680546001600160a01b038381166001600160a01b0319831681179093556040519116919082907f8be0079c531659141344cd1fd0a4f28419497f9722a3daafe3b4186f6b6457e090600090a35050565b6001600160a01b0384166119fe5760405162461bcd60e51b815260040161058190612a28565b8151835114611a1f5760405162461bcd60e51b8152600401610581906129e0565b6000611a2961150e565b905060005b8451811015611ae257838181518110611a5757634e487b7160e01b600052603260045260246000fd5b6020026020010151600080878481518110611a8257634e487b7160e01b600052603260045260246000fd5b602002602001015181526020019081526020016000206000886001600160a01b03166001600160a01b031681526020019081526020016000206000828254611aca9190612add565b90915550819050611ada81612b82565b915050611a2e565b50846001600160a01b031660006001600160a01b0316826001600160a01b03167f4a39dc06d4c0dbc64b70af90fd698a233a518aa5d07e595d983b8c0526c8f7fb8787604051611b3392919061289c565b60405180910390a4610b3181600087878787611d8f565b80611b5361150e565b6000828152600860205260409020546001600160a01b03908116911614611b8c5760405162461bcd60e51b815260040161058190612a69565b50600090815260086020526040902080546001600160a01b0319166001600160a01b0392909216919091179055565b6001600160a01b038416611be15760405162461bcd60e51b81526004016105819061291c565b6000611beb61150e565b9050611bfc8187876118ed88611efa565b6000848152602081815260408083206001600160a01b038a16845290915290205483811015611c3d5760405162461bcd60e51b815260040161058190612961565b6000858152602081815260408083206001600160a01b038b8116855292528083208785039055908816825281208054869290611c7a908490612add565b909155505060408051868152602081018690526001600160a01b03808916928a821692918616917fc3d58168c5ae7397731d063d5bbf3d657854427343f4c083240f7aacaa2d0f62910160405180910390a4611cda828888888888611f53565b50505050505050565b6000604051806080016040528060438152602001612c9d6043913980516020918201208351848301516040808701518051908601209051611d43950193845260208401929092526001600160a01b03166040830152606082015260800190565b604051602081830303815290604052805190602001209050919050565b6000611d6a610a88565b60405161190160f01b6020820152602281019190915260428101839052606201611d43565b6001600160a01b0384163b156118a35760405163bc197c8160e01b81526001600160a01b0385169063bc197c8190611dd390899089908890889088906004016127f2565b602060405180830381600087803b158015611ded57600080fd5b505af1925050508015611e1d575060408051601f3d908101601f19168201909252611e1a91810190612639565b60015b611eca57611e29612bc9565b806308c379a01415611e635750611e3e612be0565b80611e495750611e65565b8060405162461bcd60e51b815260040161058191906128c1565b505b60405162461bcd60e51b815260206004820152603460248201527f455243313135353a207472616e7366657220746f206e6f6e20455243313135356044820152732932b1b2b4bb32b91034b6b83632b6b2b73a32b960611b6064820152608401610581565b6001600160e01b0319811663bc197c8160e01b14611cda5760405162461bcd60e51b8152600401610581906128d4565b60408051600180825281830190925260609160009190602080830190803683370190505090508281600081518110611f4257634e487b7160e01b600052603260045260246000fd5b602090810291909101015292915050565b6001600160a01b0384163b156118a35760405163f23a6e6160e01b81526001600160a01b0385169063f23a6e6190611f979089908990889088908890600401612844565b602060405180830381600087803b158015611fb157600080fd5b505af1925050508015611fe1575060408051601f3d908101601f19168201909252611fde91810190612639565b60015b611fed57611e29612bc9565b6001600160e01b0319811663f23a6e6160e01b14611cda5760405162461bcd60e51b8152600401610581906128d4565b82805461202990612b21565b90600052602060002090601f01602090048101928261204b5760008555612091565b82601f1061206457805160ff1916838001178555612091565b82800160010185558215612091579182015b82811115612091578251825591602001919060010190612076565b5061209d9291506120a1565b5090565b5b8082111561209d57600081556001016120a2565b600082601f8301126120c6578081fd5b813560206120d382612aba565b6040516120e08282612b56565b8381528281019150858301838502870184018810156120fd578586fd5b855b8581101561211b578135845292840192908401906001016120ff565b5090979650505050505050565b600082601f830112612138578081fd5b81356001600160401b0381111561215157612151612bb3565b604051612168601f8301601f191660200182612b56565b81815284602083860101111561217c578283fd5b816020850160208301379081016020019190915292915050565b6000602082840312156121a7578081fd5b813561163081612c71565b600080604083850312156121c4578081fd5b82356121cf81612c71565b915060208301356121df81612c71565b809150509250929050565b600080600080600060a08688031215612201578081fd5b853561220c81612c71565b9450602086013561221c81612c71565b935060408601356001600160401b0380821115612237578283fd5b61224389838a016120b6565b94506060880135915080821115612258578283fd5b61226489838a016120b6565b93506080880135915080821115612279578283fd5b5061228688828901612128565b9150509295509295909350565b600080600080600060a086880312156122aa578081fd5b85356122b581612c71565b945060208601356122c581612c71565b9350604086013592506060860135915060808601356001600160401b038111156122ed578182fd5b61228688828901612128565b6000806040838503121561230b578182fd5b823561231681612c71565b915060208301356001600160401b03811115612330578182fd5b61233c858286016120b6565b9150509250929050565b6000806000806080858703121561235b578384fd5b843561236681612c71565b935060208501356001600160401b0380821115612381578485fd5b61238d888389016120b6565b945060408701359150808211156123a2578384fd5b6123ae888389016120b6565b935060608701359150808211156123c3578283fd5b506123d087828801612128565b91505092959194509250565b600080604083850312156123ee578182fd5b82356123f981612c71565b9150602083013580151581146121df578182fd5b600080600080600060a08688031215612424578283fd5b853561242f81612c71565b945060208601356001600160401b03811115612449578384fd5b61245588828901612128565b9450506040860135925060608601359150608086013560ff81168114612479578182fd5b809150509295509295909350565b60008060408385031215612499578182fd5b82356124a481612c71565b946020939093013593505050565b600080600080608085870312156124c7578182fd5b84356124d281612c71565b9350602085013592506040850135915060608501356001600160401b038111156124fa578182fd5b6123d087828801612128565b600080600080600060a0868803121561251d578283fd5b853561252881612c71565b9450602086013593506040860135925060608601356001600160401b0380821115612551578283fd5b61226489838a01612128565b6000806040838503121561256f578182fd5b82356001600160401b0380821115612585578384fd5b818501915085601f830112612598578384fd5b813560206125a582612aba565b6040516125b28282612b56565b8381528281019150858301838502870184018b10156125cf578889fd5b8896505b848710156125fa5780356125e681612c71565b8352600196909601959183019183016125d3565b5096505086013592505080821115612610578283fd5b5061233c858286016120b6565b60006020828403121561262e578081fd5b813561163081612c86565b60006020828403121561264a578081fd5b815161163081612c86565b600060208284031215612666578081fd5b815161163081612c71565b600060208284031215612682578081fd5b81356001600160401b03811115612697578182fd5b61136484828501612128565b6000602082840312156126b4578081fd5b5035919050565b600080604083850312156126cd578182fd5b8235915060208301356001600160401b038111156126e9578182fd5b61233c85828601612128565b6000815180845260208085019450808401835b8381101561272457815187529582019590820190600101612708565b509495945050505050565b60008151808452612747816020860160208601612af5565b601f01601f19169290920160200192915050565b6000825161276d818460208701612af5565b9190910192915050565b60008351612789818460208801612af5565b60609390931b6001600160601b0319169190920190815260140192915050565b6001600160a01b0391909116815260200190565b6001600160a01b038481168252831660208201526060604082018190526000906127e99083018461272f565b95945050505050565b6001600160a01b0386811682528516602082015260a06040820181905260009061281e908301866126f5565b828103606084015261283081866126f5565b905082810360808401526108bd818561272f565b6001600160a01b03868116825285166020820152604081018490526060810183905260a06080820181905260009061287e9083018461272f565b979650505050505050565b60006020825261163060208301846126f5565b6000604082526128af60408301856126f5565b82810360208401526127e981856126f5565b600060208252611630602083018461272f565b60208082526028908201527f455243313135353a204552433131353552656365697665722072656a656374656040820152676420746f6b656e7360c01b606082015260800190565b60208082526025908201527f455243313135353a207472616e7366657220746f20746865207a65726f206164604082015264647265737360d81b606082015260800190565b6020808252602a908201527f455243313135353a20696e73756666696369656e742062616c616e636520666f60408201526939103a3930b739b332b960b11b606082015260800190565b6020808252818101527f4f776e61626c653a2063616c6c6572206973206e6f7420746865206f776e6572604082015260600190565b60208082526028908201527f455243313135353a2069647320616e6420616d6f756e7473206c656e677468206040820152670dad2e6dac2e8c6d60c31b606082015260800190565b60208082526021908201527f455243313135353a206d696e7420746f20746865207a65726f206164647265736040820152607360f81b606082015260800190565b60208082526031908201527f455243313135355472616461626c652363726561746f724f6e6c793a204f4e4c6040820152701657d0d491505513d497d0531313d5d151607a1b606082015260800190565b60006001600160401b03821115612ad357612ad3612bb3565b5060209081020190565b60008219821115612af057612af0612b9d565b500190565b60005b83811015612b10578181015183820152602001612af8565b838111156111cd5750506000910152565b600281046001821680612b3557607f821691505b60208210811415610a8257634e487b7160e01b600052602260045260246000fd5b601f8201601f191681016001600160401b0381118282101715612b7b57612b7b612bb3565b6040525050565b6000600019821415612b9657612b96612b9d565b5060010190565b634e487b7160e01b600052601160045260246000fd5b634e487b7160e01b600052604160045260246000fd5b600060033d1115610a8c57600481823e5160e01c90565b600060443d1015612bf057610a8c565b6040516003193d81016004833e81513d6001600160401b038160248401118184111715612c21575050505050610a8c565b8285019150815181811115612c3b57505050505050610a8c565b843d8701016020828501011115612c5757505050505050610a8c565b612c6660208286010187612b56565b509094505050505090565b6001600160a01b038116811461064f57600080fd5b6001600160e01b03198116811461064f57600080fdfe4d6574615472616e73616374696f6e2875696e74323536206e6f6e63652c616464726573732066726f6d2c62797465732066756e6374696f6e5369676e617475726529a26469706673582212205e83dd70eed926fa59fec279733f6771d63e7b226c821b66cd4396403f1d481d64736f6c63430008020033454950373132446f6d61696e28737472696e67206e616d652c737472696e672076657273696f6e2c6164647265737320766572696679696e67436f6e74726163742c627974657333322073616c7429",
  "immutableReferences": {},
  "source": "// SPDX-License-Identifier: MIT\r\n\r\npragma solidity ^0.8.0;\r\n\r\nimport \"./access/Ownable.sol\";\r\nimport \"./token/ERC1155/ERC1155.sol\";\r\nimport \"./utils/math/SafeMath.sol\";\r\nimport \"./utils/Strings.sol\";\r\n\r\nimport \"./common/meta-transactions/ContentMixin.sol\";\r\nimport \"./common/meta-transactions/NativeMetaTransaction.sol\";\r\n\r\ncontract OwnableDelegateProxy { }\r\n\r\ncontract ProxyRegistry {\r\n  mapping(address => OwnableDelegateProxy) public proxies;\r\n}\r\n\r\n/**\r\n * @title ERC1155Tradable\r\n * ERC1155Tradable - ERC1155 contract that whitelists an operator address, has create and mint functionality, and supports useful standards from OpenZeppelin,\r\n  like _exists(), name(), symbol(), and totalSupply()\r\n */\r\ncontract ERC1155Tradable is ContextMixin, ERC1155, NativeMetaTransaction, Ownable {\r\n  using Strings for string;\r\n  using SafeMath for uint256;\r\n\r\n  address proxyRegistryAddress;\r\n  mapping (uint256 => address) public creators;\r\n  mapping (uint256 => uint256) public tokenSupply;\r\n  mapping (uint256 => string) customUri;\r\n  // Contract name\r\n  string public name;\r\n  // Contract symbol\r\n  string public symbol;\r\n\r\n  /**\r\n   * @dev Require _msgSender() to be the creator of the token id\r\n   */\r\n  modifier creatorOnly(uint256 _id) {\r\n    require(creators[_id] == _msgSender(), \"ERC1155Tradable#creatorOnly: ONLY_CREATOR_ALLOWED\");\r\n    _;\r\n  }\r\n\r\n  /**\r\n   * @dev Require _msgSender() to own more than 0 of the token id\r\n   */\r\n  modifier ownersOnly(uint256 _id) {\r\n    require(balanceOf(_msgSender(), _id) > 0, \"ERC1155Tradable#ownersOnly: ONLY_OWNERS_ALLOWED\");\r\n    _;\r\n  }\r\n\r\n  constructor(\r\n    string memory _name,\r\n    string memory _symbol,\r\n    string memory _uri\r\n\r\n  ) ERC1155(_uri) {\r\n    name = _name;\r\n    symbol = _symbol;\r\n\r\n    _initializeEIP712(name);\r\n  }\r\n\r\n  function uri(\r\n    uint256 _id\r\n  ) override public view returns (string memory) {\r\n    require(_exists(_id), \"ERC1155Tradable#uri: NONEXISTENT_TOKEN\");\r\n    // We have to convert string to bytes to check for existence\r\n    bytes memory customUriBytes = bytes(customUri[_id]);\r\n    if (customUriBytes.length > 0) {\r\n        return customUri[_id];\r\n    } else {\r\n        return super.uri(_id);\r\n    }\r\n  }\r\n\r\n  /**\r\n    * @dev Returns the total quantity for a token ID\r\n    * @param _id uint256 ID of the token to query\r\n    * @return amount of token in existence\r\n    */\r\n  function totalSupply(\r\n    uint256 _id\r\n  ) public view returns (uint256) {\r\n    return tokenSupply[_id];\r\n  }\r\n\r\n  /**\r\n   * @dev Sets a new URI for all token types, by relying on the token type ID\r\n    * substitution mechanism\r\n    * https://eips.ethereum.org/EIPS/eip-1155#metadata[defined in the EIP].\r\n   * @param _newURI New URI for all tokens\r\n   */\r\n  function setURI(\r\n    string memory _newURI\r\n  ) public onlyOwner {\r\n    _setURI(_newURI);\r\n  }\r\n\r\n  /**\r\n   * @dev Will update the base URI for the token\r\n   * @param _tokenId The token to update. _msgSender() must be its creator.\r\n   * @param _newURI New URI for the token.\r\n   */\r\n  function setCustomURI(\r\n    uint256 _tokenId,\r\n    string memory _newURI\r\n  ) public creatorOnly(_tokenId) {\r\n    customUri[_tokenId] = _newURI;\r\n    emit URI(_newURI, _tokenId);\r\n  }\r\n\r\n  /**\r\n    * @dev Creates a new token type and assigns _initialSupply to an address\r\n    * NOTE: remove onlyOwner if you want third parties to create new tokens on\r\n    *       your contract (which may change your IDs)\r\n    * NOTE: The token id must be passed. This allows lazy creation of tokens or\r\n    *       creating NFTs by setting the id's high bits with the method\r\n    *       described in ERC1155 or to use ids representing values other than\r\n    *       successive small integers. If you wish to create ids as successive\r\n    *       small integers you can either subclass this class to count onchain\r\n    *       or maintain the offchain cache of identifiers recommended in\r\n    *       ERC1155 and calculate successive ids from that.\r\n    * @param _initialOwner address of the first owner of the token\r\n    * @param _id The id of the token to create (must not currenty exist).\r\n    * @param _initialSupply amount to supply the first owner\r\n    * @param _uri Optional URI for this token type\r\n    * @param _data Data to pass if receiver is contract\r\n    * @return The newly created token ID\r\n    */\r\n  function create(\r\n    address _initialOwner,\r\n    uint256 _id,\r\n    uint256 _initialSupply,\r\n    string memory _uri,\r\n    bytes memory _data\r\n  ) public onlyOwner returns (uint256) {\r\n    require(!_exists(_id), \"token _id already exists\");\r\n    creators[_id] = _msgSender();\r\n\r\n    if (bytes(_uri).length > 0) {\r\n      customUri[_id] = _uri;\r\n      emit URI(_uri, _id);\r\n    }\r\n\r\n    _mint(_initialOwner, _id, _initialSupply, _data);\r\n\r\n    tokenSupply[_id] = _initialSupply;\r\n    return _id;\r\n  }\r\n\r\n  /**\r\n    * @dev Mints some amount of tokens to an address\r\n    * @param _to          Address of the future owner of the token\r\n    * @param _id          Token ID to mint\r\n    * @param _quantity    Amount of tokens to mint\r\n    * @param _data        Data to pass if receiver is contract\r\n    */\r\n  function mint(\r\n    address _to,\r\n    uint256 _id,\r\n    uint256 _quantity,\r\n    bytes memory _data\r\n  ) virtual public creatorOnly(_id) {\r\n    _mint(_to, _id, _quantity, _data);\r\n    tokenSupply[_id] = tokenSupply[_id].add(_quantity);\r\n  }\r\n\r\n  /**\r\n    * @dev Mint tokens for each id in _ids\r\n    * @param _to          The address to mint tokens to\r\n    * @param _ids         Array of ids to mint\r\n    * @param _quantities  Array of amounts of tokens to mint per id\r\n    * @param _data        Data to pass if receiver is contract\r\n    */\r\n  function batchMint(\r\n    address _to,\r\n    uint256[] memory _ids,\r\n    uint256[] memory _quantities,\r\n    bytes memory _data\r\n  ) public {\r\n    for (uint256 i = 0; i < _ids.length; i++) {\r\n      uint256 _id = _ids[i];\r\n      require(creators[_id] == _msgSender(), \"ERC1155Tradable#batchMint: ONLY_CREATOR_ALLOWED\");\r\n      uint256 quantity = _quantities[i];\r\n      tokenSupply[_id] = tokenSupply[_id].add(quantity);\r\n    }\r\n    _mintBatch(_to, _ids, _quantities, _data);\r\n  }\r\n\r\n  /**\r\n    * @dev Change the creator address for given tokens\r\n    * @param _to   Address of the new creator\r\n    * @param _ids  Array of Token IDs to change creator\r\n    */\r\n  function setCreator(\r\n    address _to,\r\n    uint256[] memory _ids\r\n  ) public {\r\n    require(_to != address(0), \"ERC1155Tradable#setCreator: INVALID_ADDRESS.\");\r\n    for (uint256 i = 0; i < _ids.length; i++) {\r\n      uint256 id = _ids[i];\r\n      _setCreator(_to, id);\r\n    }\r\n  }\r\n\r\n  /**\r\n   * Override isApprovedForAll to whitelist user's OpenSea proxy accounts to enable gas-free listings.\r\n   */\r\n  function isApprovedForAll(\r\n    address _owner,\r\n    address _operator\r\n  ) override public view returns (bool isOperator) {\r\n    // Whitelist OpenSea proxy contract for easy trading.\r\n    ProxyRegistry proxyRegistry = ProxyRegistry(proxyRegistryAddress);\r\n    if (address(proxyRegistry.proxies(_owner)) == _operator) {\r\n      return true;\r\n    }\r\n\r\n    return ERC1155.isApprovedForAll(_owner, _operator);\r\n  }\r\n\r\n  /**\r\n    * @dev Change the creator address for given token\r\n    * @param _to   Address of the new creator\r\n    * @param _id  Token IDs to change creator of\r\n    */\r\n  function _setCreator(address _to, uint256 _id) internal creatorOnly(_id)\r\n  {\r\n      creators[_id] = _to;\r\n  }\r\n\r\n  /**\r\n    * @dev Returns whether the specified token exists by checking to see if it has a creator\r\n    * @param _id uint256 ID of the token to query the existence of\r\n    * @return bool whether the token exists\r\n    */\r\n  function _exists(\r\n    uint256 _id\r\n  ) internal view returns (bool) {\r\n    return creators[_id] != address(0);\r\n  }\r\n\r\n  function exists(\r\n    uint256 _id\r\n  ) external view returns (bool) {\r\n    return _exists(_id);\r\n  }\r\n\r\n    /**\r\n     * This is used instead of msg.sender as transactions won't be sent by the original token owner, but by OpenSea.\r\n     */\r\n    function _msgSender()\r\n        internal\r\n        override\r\n        view\r\n        returns (address sender)\r\n    {\r\n        return ContextMixin.msgSender();\r\n    }\r\n}",
  "sourcePath": "C:\\Users\\cody.burns\\Documents\\github\\generative-art-node\\contracts\\ERC1155Tradeable.sol",
  "compiler": {
    "name": "solc",
    "version": "0.8.2+commit.661d1103.Emscripten.clang"
  },
  "schemaVersion": "3.4.3",
  "updatedAt": "2021-09-10T01:36:38.836Z",
  "networkType": "ethereum",
  "devdoc": {
    "kind": "dev",
    "methods": {
      "balanceOf(address,uint256)": {
        "details": "See {IERC1155-balanceOf}. Requirements: - `account` cannot be the zero address."
      },
      "balanceOfBatch(address[],uint256[])": {
        "details": "See {IERC1155-balanceOfBatch}. Requirements: - `accounts` and `ids` must have the same length."
      },
      "batchMint(address,uint256[],uint256[],bytes)": {
        "details": "Mint tokens for each id in _ids",
        "params": {
          "_data": "Data to pass if receiver is contract",
          "_ids": "Array of ids to mint",
          "_quantities": "Array of amounts of tokens to mint per id",
          "_to": "The address to mint tokens to"
        }
      },
      "create(address,uint256,uint256,string,bytes)": {
        "details": "Creates a new token type and assigns _initialSupply to an address NOTE: remove onlyOwner if you want third parties to create new tokens on       your contract (which may change your IDs) NOTE: The token id must be passed. This allows lazy creation of tokens or       creating NFTs by setting the id's high bits with the method       described in ERC1155 or to use ids representing values other than       successive small integers. If you wish to create ids as successive       small integers you can either subclass this class to count onchain       or maintain the offchain cache of identifiers recommended in       ERC1155 and calculate successive ids from that.",
        "params": {
          "_data": "Data to pass if receiver is contract",
          "_id": "The id of the token to create (must not currenty exist).",
          "_initialOwner": "address of the first owner of the token",
          "_initialSupply": "amount to supply the first owner",
          "_uri": "Optional URI for this token type"
        },
        "returns": {
          "_0": "The newly created token ID"
        }
      },
      "mint(address,uint256,uint256,bytes)": {
        "details": "Mints some amount of tokens to an address",
        "params": {
          "_data": "Data to pass if receiver is contract",
          "_id": "Token ID to mint",
          "_quantity": "Amount of tokens to mint",
          "_to": "Address of the future owner of the token"
        }
      },
      "owner()": {
        "details": "Returns the address of the current owner."
      },
      "renounceOwnership()": {
        "details": "Leaves the contract without owner. It will not be possible to call `onlyOwner` functions anymore. Can only be called by the current owner. NOTE: Renouncing ownership will leave the contract without an owner, thereby removing any functionality that is only available to the owner."
      },
      "safeBatchTransferFrom(address,address,uint256[],uint256[],bytes)": {
        "details": "See {IERC1155-safeBatchTransferFrom}."
      },
      "safeTransferFrom(address,address,uint256,uint256,bytes)": {
        "details": "See {IERC1155-safeTransferFrom}."
      },
      "setApprovalForAll(address,bool)": {
        "details": "See {IERC1155-setApprovalForAll}."
      },
      "setCreator(address,uint256[])": {
        "details": "Change the creator address for given tokens",
        "params": {
          "_ids": "Array of Token IDs to change creator",
          "_to": "Address of the new creator"
        }
      },
      "setCustomURI(uint256,string)": {
        "details": "Will update the base URI for the token",
        "params": {
          "_newURI": "New URI for the token.",
          "_tokenId": "The token to update. _msgSender() must be its creator."
        }
      },
      "setURI(string)": {
        "details": "Sets a new URI for all token types, by relying on the token type ID substitution mechanism https://eips.ethereum.org/EIPS/eip-1155#metadata[defined in the EIP].",
        "params": {
          "_newURI": "New URI for all tokens"
        }
      },
      "supportsInterface(bytes4)": {
        "details": "See {IERC165-supportsInterface}."
      },
      "totalSupply(uint256)": {
        "details": "Returns the total quantity for a token ID",
        "params": {
          "_id": "uint256 ID of the token to query"
        },
        "returns": {
          "_0": "amount of token in existence"
        }
      },
      "transferOwnership(address)": {
        "details": "Transfers ownership of the contract to a new account (`newOwner`). Can only be called by the current owner."
      }
    },
    "title": "ERC1155Tradable ERC1155Tradable - ERC1155 contract that whitelists an operator address, has create and mint functionality, and supports useful standards from OpenZeppelin, like _exists(), name(), symbol(), and totalSupply()",
    "version": 1
  },
  "userdoc": {
    "kind": "user",
    "methods": {
      "isApprovedForAll(address,address)": {
        "notice": "Override isApprovedForAll to whitelist user's OpenSea proxy accounts to enable gas-free listings."
      }
    },
    "version": 1
  }
}