{
  "contractName": "ERC777PresetFixedSupply",
  "abi": [
    {
      "inputs": [
        {
          "internalType": "string",
          "name": "name",
          "type": "string"
        },
        {
          "internalType": "string",
          "name": "symbol",
          "type": "string"
        },
        {
          "internalType": "address[]",
          "name": "defaultOperators",
          "type": "address[]"
        },
        {
          "internalType": "uint256",
          "name": "initialSupply",
          "type": "uint256"
        },
        {
          "internalType": "address",
          "name": "owner",
          "type": "address"
        }
      ],
      "stateMutability": "nonpayable",
      "type": "constructor"
    },
    {
      "anonymous": false,
      "inputs": [
        {
          "indexed": true,
          "internalType": "address",
          "name": "owner",
          "type": "address"
        },
        {
          "indexed": true,
          "internalType": "address",
          "name": "spender",
          "type": "address"
        },
        {
          "indexed": false,
          "internalType": "uint256",
          "name": "value",
          "type": "uint256"
        }
      ],
      "name": "Approval",
      "type": "event"
    },
    {
      "anonymous": false,
      "inputs": [
        {
          "indexed": true,
          "internalType": "address",
          "name": "operator",
          "type": "address"
        },
        {
          "indexed": true,
          "internalType": "address",
          "name": "tokenHolder",
          "type": "address"
        }
      ],
      "name": "AuthorizedOperator",
      "type": "event"
    },
    {
      "anonymous": false,
      "inputs": [
        {
          "indexed": true,
          "internalType": "address",
          "name": "operator",
          "type": "address"
        },
        {
          "indexed": true,
          "internalType": "address",
          "name": "from",
          "type": "address"
        },
        {
          "indexed": false,
          "internalType": "uint256",
          "name": "amount",
          "type": "uint256"
        },
        {
          "indexed": false,
          "internalType": "bytes",
          "name": "data",
          "type": "bytes"
        },
        {
          "indexed": false,
          "internalType": "bytes",
          "name": "operatorData",
          "type": "bytes"
        }
      ],
      "name": "Burned",
      "type": "event"
    },
    {
      "anonymous": false,
      "inputs": [
        {
          "indexed": true,
          "internalType": "address",
          "name": "operator",
          "type": "address"
        },
        {
          "indexed": true,
          "internalType": "address",
          "name": "to",
          "type": "address"
        },
        {
          "indexed": false,
          "internalType": "uint256",
          "name": "amount",
          "type": "uint256"
        },
        {
          "indexed": false,
          "internalType": "bytes",
          "name": "data",
          "type": "bytes"
        },
        {
          "indexed": false,
          "internalType": "bytes",
          "name": "operatorData",
          "type": "bytes"
        }
      ],
      "name": "Minted",
      "type": "event"
    },
    {
      "anonymous": false,
      "inputs": [
        {
          "indexed": true,
          "internalType": "address",
          "name": "operator",
          "type": "address"
        },
        {
          "indexed": true,
          "internalType": "address",
          "name": "tokenHolder",
          "type": "address"
        }
      ],
      "name": "RevokedOperator",
      "type": "event"
    },
    {
      "anonymous": false,
      "inputs": [
        {
          "indexed": true,
          "internalType": "address",
          "name": "operator",
          "type": "address"
        },
        {
          "indexed": true,
          "internalType": "address",
          "name": "from",
          "type": "address"
        },
        {
          "indexed": true,
          "internalType": "address",
          "name": "to",
          "type": "address"
        },
        {
          "indexed": false,
          "internalType": "uint256",
          "name": "amount",
          "type": "uint256"
        },
        {
          "indexed": false,
          "internalType": "bytes",
          "name": "data",
          "type": "bytes"
        },
        {
          "indexed": false,
          "internalType": "bytes",
          "name": "operatorData",
          "type": "bytes"
        }
      ],
      "name": "Sent",
      "type": "event"
    },
    {
      "anonymous": false,
      "inputs": [
        {
          "indexed": true,
          "internalType": "address",
          "name": "from",
          "type": "address"
        },
        {
          "indexed": true,
          "internalType": "address",
          "name": "to",
          "type": "address"
        },
        {
          "indexed": false,
          "internalType": "uint256",
          "name": "value",
          "type": "uint256"
        }
      ],
      "name": "Transfer",
      "type": "event"
    },
    {
      "inputs": [
        {
          "internalType": "address",
          "name": "holder",
          "type": "address"
        },
        {
          "internalType": "address",
          "name": "spender",
          "type": "address"
        }
      ],
      "name": "allowance",
      "outputs": [
        {
          "internalType": "uint256",
          "name": "",
          "type": "uint256"
        }
      ],
      "stateMutability": "view",
      "type": "function"
    },
    {
      "inputs": [
        {
          "internalType": "address",
          "name": "spender",
          "type": "address"
        },
        {
          "internalType": "uint256",
          "name": "value",
          "type": "uint256"
        }
      ],
      "name": "approve",
      "outputs": [
        {
          "internalType": "bool",
          "name": "",
          "type": "bool"
        }
      ],
      "stateMutability": "nonpayable",
      "type": "function"
    },
    {
      "inputs": [
        {
          "internalType": "address",
          "name": "operator",
          "type": "address"
        }
      ],
      "name": "authorizeOperator",
      "outputs": [],
      "stateMutability": "nonpayable",
      "type": "function"
    },
    {
      "inputs": [
        {
          "internalType": "address",
          "name": "tokenHolder",
          "type": "address"
        }
      ],
      "name": "balanceOf",
      "outputs": [
        {
          "internalType": "uint256",
          "name": "",
          "type": "uint256"
        }
      ],
      "stateMutability": "view",
      "type": "function"
    },
    {
      "inputs": [
        {
          "internalType": "uint256",
          "name": "amount",
          "type": "uint256"
        },
        {
          "internalType": "bytes",
          "name": "data",
          "type": "bytes"
        }
      ],
      "name": "burn",
      "outputs": [],
      "stateMutability": "nonpayable",
      "type": "function"
    },
    {
      "inputs": [],
      "name": "decimals",
      "outputs": [
        {
          "internalType": "uint8",
          "name": "",
          "type": "uint8"
        }
      ],
      "stateMutability": "pure",
      "type": "function"
    },
    {
      "inputs": [],
      "name": "defaultOperators",
      "outputs": [
        {
          "internalType": "address[]",
          "name": "",
          "type": "address[]"
        }
      ],
      "stateMutability": "view",
      "type": "function"
    },
    {
      "inputs": [],
      "name": "granularity",
      "outputs": [
        {
          "internalType": "uint256",
          "name": "",
          "type": "uint256"
        }
      ],
      "stateMutability": "view",
      "type": "function"
    },
    {
      "inputs": [
        {
          "internalType": "address",
          "name": "operator",
          "type": "address"
        },
        {
          "internalType": "address",
          "name": "tokenHolder",
          "type": "address"
        }
      ],
      "name": "isOperatorFor",
      "outputs": [
        {
          "internalType": "bool",
          "name": "",
          "type": "bool"
        }
      ],
      "stateMutability": "view",
      "type": "function"
    },
    {
      "inputs": [],
      "name": "name",
      "outputs": [
        {
          "internalType": "string",
          "name": "",
          "type": "string"
        }
      ],
      "stateMutability": "view",
      "type": "function"
    },
    {
      "inputs": [
        {
          "internalType": "address",
          "name": "account",
          "type": "address"
        },
        {
          "internalType": "uint256",
          "name": "amount",
          "type": "uint256"
        },
        {
          "internalType": "bytes",
          "name": "data",
          "type": "bytes"
        },
        {
          "internalType": "bytes",
          "name": "operatorData",
          "type": "bytes"
        }
      ],
      "name": "operatorBurn",
      "outputs": [],
      "stateMutability": "nonpayable",
      "type": "function"
    },
    {
      "inputs": [
        {
          "internalType": "address",
          "name": "sender",
          "type": "address"
        },
        {
          "internalType": "address",
          "name": "recipient",
          "type": "address"
        },
        {
          "internalType": "uint256",
          "name": "amount",
          "type": "uint256"
        },
        {
          "internalType": "bytes",
          "name": "data",
          "type": "bytes"
        },
        {
          "internalType": "bytes",
          "name": "operatorData",
          "type": "bytes"
        }
      ],
      "name": "operatorSend",
      "outputs": [],
      "stateMutability": "nonpayable",
      "type": "function"
    },
    {
      "inputs": [
        {
          "internalType": "address",
          "name": "operator",
          "type": "address"
        }
      ],
      "name": "revokeOperator",
      "outputs": [],
      "stateMutability": "nonpayable",
      "type": "function"
    },
    {
      "inputs": [
        {
          "internalType": "address",
          "name": "recipient",
          "type": "address"
        },
        {
          "internalType": "uint256",
          "name": "amount",
          "type": "uint256"
        },
        {
          "internalType": "bytes",
          "name": "data",
          "type": "bytes"
        }
      ],
      "name": "send",
      "outputs": [],
      "stateMutability": "nonpayable",
      "type": "function"
    },
    {
      "inputs": [],
      "name": "symbol",
      "outputs": [
        {
          "internalType": "string",
          "name": "",
          "type": "string"
        }
      ],
      "stateMutability": "view",
      "type": "function"
    },
    {
      "inputs": [],
      "name": "totalSupply",
      "outputs": [
        {
          "internalType": "uint256",
          "name": "",
          "type": "uint256"
        }
      ],
      "stateMutability": "view",
      "type": "function"
    },
    {
      "inputs": [
        {
          "internalType": "address",
          "name": "recipient",
          "type": "address"
        },
        {
          "internalType": "uint256",
          "name": "amount",
          "type": "uint256"
        }
      ],
      "name": "transfer",
      "outputs": [
        {
          "internalType": "bool",
          "name": "",
          "type": "bool"
        }
      ],
      "stateMutability": "nonpayable",
      "type": "function"
    },
    {
      "inputs": [
        {
          "internalType": "address",
          "name": "holder",
          "type": "address"
        },
        {
          "internalType": "address",
          "name": "recipient",
          "type": "address"
        },
        {
          "internalType": "uint256",
          "name": "amount",
          "type": "uint256"
        }
      ],
      "name": "transferFrom",
      "outputs": [
        {
          "internalType": "bool",
          "name": "",
          "type": "bool"
        }
      ],
      "stateMutability": "nonpayable",
      "type": "function"
    }
  ],
  "bytecode": "0x60806040523480156200001157600080fd5b506040516200220238038062002202833981016040819052620000349162000775565b84848482600290805190602001906200004f929190620005c9565b50815162000065906003906020850190620005c9565b5080516200007b90600490602084019062000658565b5060005b8151811015620000f757600160056000848481518110620000b057634e487b7160e01b600052603260045260246000fd5b6020908102919091018101516001600160a01b03168252810191909152604001600020805460ff191691151591909117905580620000ee8162000a16565b9150506200007f565b506040516329965a1d60e01b815230600482018190527fac7fbab5f54a3ca8194167523c6753bfeb96a445279294b6125b68cce217705460248301526044820152731820a4b7618bde71dce8cdc73aab6c95905fad24906329965a1d90606401600060405180830381600087803b1580156200017257600080fd5b505af115801562000187573d6000803e3d6000fd5b50506040516329965a1d60e01b815230600482018190527faea199e31a596269b42cdafd93407f14436db6e4cad65417994c2eb37381e05a60248301526044820152731820a4b7618bde71dce8cdc73aab6c95905fad2492506329965a1d9150606401600060405180830381600087803b1580156200020557600080fd5b505af11580156200021a573d6000803e3d6000fd5b5050505050505062000253818360405180602001604052806000815250604051806020016040528060008152506200025e60201b60201c565b505050505062000a60565b6200026e84848484600162000274565b50505050565b6001600160a01b038516620002d05760405162461bcd60e51b815260206004820181905260248201527f4552433737373a206d696e7420746f20746865207a65726f206164647265737360448201526064015b60405180910390fd5b60003390508460016000828254620002e991906200098f565b90915550506001600160a01b03861660009081526020819052604081208054879290620003189084906200098f565b909155506200033090508160008888888888620003ca565b856001600160a01b0316816001600160a01b03167f2fe5be0146f74c5bce36c0b80911af6c7d86ff27e89d5cfa61fc681327954e5d878787604051620003799392919062000923565b60405180910390a36040518581526001600160a01b038716906000907fddf252ad1be2c89b69c2b068fc378daa952ba7f163c4a11628f55a4df523b3ef9060200160405180910390a3505050505050565b60405163555ddc6560e11b81526001600160a01b03861660048201527fb281fc8c12954d22544db45de3159a39272895b169a852b314f9cc762e44c53b6024820152600090731820a4b7618bde71dce8cdc73aab6c95905fad249063aabbb8ca9060440160206040518083038186803b1580156200044757600080fd5b505afa1580156200045c573d6000803e3d6000fd5b505050506040513d601f19601f8201168201806040525081019062000482919062000751565b90506001600160a01b0381161562000504576040516223de2960e01b81526001600160a01b038216906223de2990620004ca908b908b908b908b908b908b90600401620008c5565b600060405180830381600087803b158015620004e557600080fd5b505af1158015620004fa573d6000803e3d6000fd5b50505050620005b5565b8115620005b5576200052a866001600160a01b0316620005bf60201b620009a01760201c565b15620005b55760405162461bcd60e51b815260206004820152604d60248201527f4552433737373a20746f6b656e20726563697069656e7420636f6e747261637460448201527f20686173206e6f20696d706c656d656e74657220666f7220455243373737546f60648201526c1ad95b9cd49958da5c1a595b9d609a1b608482015260a401620002c7565b5050505050505050565b803b15155b919050565b828054620005d790620009d9565b90600052602060002090601f016020900481019282620005fb576000855562000646565b82601f106200061657805160ff191683800117855562000646565b8280016001018555821562000646579182015b828111156200064657825182559160200191906001019062000629565b5062000654929150620006b0565b5090565b82805482825590600052602060002090810192821562000646579160200282015b828111156200064657825182546001600160a01b0319166001600160a01b0390911617825560209092019160019091019062000679565b5b80821115620006545760008155600101620006b1565b80516001600160a01b0381168114620005c457600080fd5b600082601f830112620006f0578081fd5b81516001600160401b038111156200070c576200070c62000a4a565b62000721601f8201601f19166020016200095c565b81815284602083860101111562000736578283fd5b62000749826020830160208701620009aa565b949350505050565b60006020828403121562000763578081fd5b6200076e82620006c7565b9392505050565b600080600080600060a086880312156200078d578081fd5b85516001600160401b0380821115620007a4578283fd5b620007b289838a01620006df565b9650602091508188015181811115620007c9578384fd5b620007d78a828b01620006df565b965050604088015181811115620007ec578384fd5b8801601f81018a13620007fd578384fd5b80518281111562000812576200081262000a4a565b8381029250620008248484016200095c565b8181528481019083860185850187018e10156200083f578788fd5b8795505b838610156200086c576200085781620006c7565b83526001959095019491860191860162000843565b50809850505050505050606086015191506200088b60808701620006c7565b90509295509295909350565b60008151808452620008b1816020860160208601620009aa565b601f01601f19169290920160200192915050565b6001600160a01b0387811682528681166020830152851660408201526060810184905260c060808201819052600090620009029083018562000897565b82810360a084015262000916818562000897565b9998505050505050505050565b6000848252606060208301526200093e606083018562000897565b828103604084015262000952818562000897565b9695505050505050565b604051601f8201601f191681016001600160401b038111828210171562000987576200098762000a4a565b604052919050565b60008219821115620009a557620009a562000a34565b500190565b60005b83811015620009c7578181015183820152602001620009ad565b838111156200026e5750506000910152565b600281046001821680620009ee57607f821691505b6020821081141562000a1057634e487b7160e01b600052602260045260246000fd5b50919050565b600060001982141562000a2d5762000a2d62000a34565b5060010190565b634e487b7160e01b600052601160045260246000fd5b634e487b7160e01b600052604160045260246000fd5b6117928062000a706000396000f3fe608060405234801561001057600080fd5b50600436106100e65760003560e01c806306e48538146100eb57806306fdde0314610109578063095ea7b31461011e57806318160ddd1461014157806323b872dd14610153578063313ce56714610166578063556f0dc71461017557806362ad1b831461017c57806370a0823114610191578063959b8c3f146101ba57806395d89b41146101cd5780639bd9bbc6146101d5578063a9059cbb146101e8578063d95b6371146101fb578063dd62ed3e1461020e578063fad8b32a14610247578063fc673c4f1461025a578063fe9d93031461026d575b600080fd5b6100f3610280565b6040516101009190611589565b60405180910390f35b6101116102e2565b60405161010091906115d6565b61013161012c36600461138a565b61036b565b6040519015158152602001610100565b6001545b604051908152602001610100565b6101316101613660046112bb565b610383565b60405160128152602001610100565b6001610145565b61018f61018a3660046112fb565b61054c565b005b61014561019f36600461124b565b6001600160a01b031660009081526020819052604090205490565b61018f6101c836600461124b565b610588565b6101116106a6565b61018f6101e33660046113b5565b6106b5565b6101316101f636600461138a565b6106d8565b610131610209366004611283565b61078b565b61014561021c366004611283565b6001600160a01b03918216600090815260086020908152604080832093909416825291909152205490565b61018f61025536600461124b565b61082d565b61018f61026836600461140b565b610949565b61018f61027b366004611487565b610981565b606060048054806020026020016040519081016040528092919081815260200182805480156102d857602002820191906000526020600020905b81546001600160a01b031681526001909101906020018083116102ba575b5050505050905090565b6060600280546102f1906116dd565b80601f016020809104026020016040519081016040528092919081815260200182805461031d906116dd565b80156102d85780601f1061033f576101008083540402835291602001916102d8565b820191906000526020600020905b81548152906001019060200180831161034d57509395945050505050565b6000336103798185856109a6565b5060019392505050565b60006001600160a01b0383166103b45760405162461bcd60e51b81526004016103ab906115e9565b60405180910390fd5b6001600160a01b0384166104195760405162461bcd60e51b815260206004820152602660248201527f4552433737373a207472616e736665722066726f6d20746865207a65726f206160448201526564647265737360d01b60648201526084016103ab565b600033905061044a818686866040518060200160405280600081525060405180602001604052806000815250610acd565b610476818686866040518060200160405280600081525060405180602001604052806000815250610bfc565b6001600160a01b03808616600090815260086020908152604080832093851683529290522054838110156104fe5760405162461bcd60e51b815260206004820152602960248201527f4552433737373a207472616e7366657220616d6f756e74206578636565647320604482015268616c6c6f77616e636560b81b60648201526084016103ab565b610512868361050d87856116c6565b6109a6565b6105408287878760405180602001604052806000815250604051806020016040528060008152506000610d62565b50600195945050505050565b610556338661078b565b6105725760405162461bcd60e51b81526004016103ab9061162d565b61058185858585856001610f2e565b5050505050565b336001600160a01b03821614156105ed5760405162461bcd60e51b8152602060048201526024808201527f4552433737373a20617574686f72697a696e672073656c66206173206f70657260448201526330ba37b960e11b60648201526084016103ab565b6001600160a01b03811660009081526005602052604090205460ff161561063e573360009081526007602090815260408083206001600160a01b03851684529091529020805460ff1916905561066d565b3360009081526006602090815260408083206001600160a01b03851684529091529020805460ff191660011790555b60405133906001600160a01b038316907ff4caeb2d6ca8932a215a353d0703c326ec2d81fc68170f320eb2ab49e9df61f990600090a350565b6060600380546102f1906116dd565b6106d333848484604051806020016040528060008152506001610f2e565b505050565b60006001600160a01b0383166107005760405162461bcd60e51b81526004016103ab906115e9565b6000339050610731818286866040518060200160405280600081525060405180602001604052806000815250610acd565b61075d818286866040518060200160405280600081525060405180602001604052806000815250610bfc565b6103798182868660405180602001604052806000815250604051806020016040528060008152506000610d62565b6000816001600160a01b0316836001600160a01b031614806107f657506001600160a01b03831660009081526005602052604090205460ff1680156107f657506001600160a01b0380831660009081526007602090815260408083209387168352929052205460ff16155b8061082657506001600160a01b0380831660009081526006602090815260408083209387168352929052205460ff165b9392505050565b6001600160a01b0381163314156108905760405162461bcd60e51b815260206004820152602160248201527f4552433737373a207265766f6b696e672073656c66206173206f70657261746f6044820152603960f91b60648201526084016103ab565b6001600160a01b03811660009081526005602052604090205460ff16156108e4573360009081526007602090815260408083206001600160a01b03851684529091529020805460ff19166001179055610910565b3360009081526006602090815260408083206001600160a01b03851684529091529020805460ff191690555b60405133906001600160a01b038316907f50546e66e5f44d728365dc3908c63bc5cfeeab470722c1677e3073a6ac294aa190600090a350565b610953338561078b565b61096f5760405162461bcd60e51b81526004016103ab9061162d565b61097b84848484611011565b50505050565b61099c33838360405180602001604052806000815250611011565b5050565b3b151590565b6001600160a01b038316610a0a5760405162461bcd60e51b815260206004820152602560248201527f4552433737373a20617070726f76652066726f6d20746865207a65726f206164604482015264647265737360d81b60648201526084016103ab565b6001600160a01b038216610a6c5760405162461bcd60e51b815260206004820152602360248201527f4552433737373a20617070726f766520746f20746865207a65726f206164647260448201526265737360e81b60648201526084016103ab565b6001600160a01b0383811660008181526008602090815260408083209487168084529482529182902085905590518481527f8c5be1e5ebec7d5bd14f71427d1e84f3dd0314c0f7b2291e5b200ac8c7c3b925910160405180910390a3505050565b60405163555ddc6560e11b8152600090731820a4b7618bde71dce8cdc73aab6c95905fad249063aabbb8ca90610b299089907f29ddb589b1fb5fc7cf394961c1adf5f8c6454761adf795e67fe149f658abe89590600401611570565b60206040518083038186803b158015610b4157600080fd5b505afa158015610b55573d6000803e3d6000fd5b505050506040513d601f19601f82011682018060405250810190610b799190611267565b90506001600160a01b03811615610bf357604051633ad5cbc160e11b81526001600160a01b038216906375ab978290610bc0908a908a908a908a908a908a90600401611516565b600060405180830381600087803b158015610bda57600080fd5b505af1158015610bee573d6000803e3d6000fd5b505050505b50505050505050565b6001600160a01b03851660009081526020819052604090205483811015610c755760405162461bcd60e51b815260206004820152602760248201527f4552433737373a207472616e7366657220616d6f756e7420657863656564732060448201526662616c616e636560c81b60648201526084016103ab565b6001600160a01b03808716600090815260208190526040808220878503905591871681529081208054869290610cac9084906116ae565b92505081905550846001600160a01b0316866001600160a01b0316886001600160a01b03167f06b541ddaa720db2b10a4d0cdac39b8d360425fc073085fac19bc82614677987878787604051610d0493929190611679565b60405180910390a4846001600160a01b0316866001600160a01b03167fddf252ad1be2c89b69c2b068fc378daa952ba7f163c4a11628f55a4df523b3ef86604051610d5191815260200190565b60405180910390a350505050505050565b60405163555ddc6560e11b8152600090731820a4b7618bde71dce8cdc73aab6c95905fad249063aabbb8ca90610dbe9089907fb281fc8c12954d22544db45de3159a39272895b169a852b314f9cc762e44c53b90600401611570565b60206040518083038186803b158015610dd657600080fd5b505afa158015610dea573d6000803e3d6000fd5b505050506040513d601f19601f82011682018060405250810190610e0e9190611267565b90506001600160a01b03811615610e8a576040516223de2960e01b81526001600160a01b038216906223de2990610e53908b908b908b908b908b908b90600401611516565b600060405180830381600087803b158015610e6d57600080fd5b505af1158015610e81573d6000803e3d6000fd5b50505050610f24565b8115610f24576001600160a01b0386163b15610f245760405162461bcd60e51b815260206004820152604d60248201527f4552433737373a20746f6b656e20726563697069656e7420636f6e747261637460448201527f20686173206e6f20696d706c656d656e74657220666f7220455243373737546f60648201526c1ad95b9cd49958da5c1a595b9d609a1b608482015260a4016103ab565b5050505050505050565b6001600160a01b038616610f8f5760405162461bcd60e51b815260206004820152602260248201527f4552433737373a2073656e642066726f6d20746865207a65726f206164647265604482015261737360f01b60648201526084016103ab565b6001600160a01b038516610fe55760405162461bcd60e51b815260206004820181905260248201527f4552433737373a2073656e6420746f20746865207a65726f206164647265737360448201526064016103ab565b33610ff4818888888888610acd565b611002818888888888610bfc565b610bf381888888888888610d62565b6001600160a01b0384166110725760405162461bcd60e51b815260206004820152602260248201527f4552433737373a206275726e2066726f6d20746865207a65726f206164647265604482015261737360f01b60648201526084016103ab565b3361108281866000878787610acd565b6001600160a01b038516600090815260208190526040902054848110156110f75760405162461bcd60e51b815260206004820152602360248201527f4552433737373a206275726e20616d6f756e7420657863656564732062616c616044820152626e636560e81b60648201526084016103ab565b6001600160a01b03861660009081526020819052604081208683039055600180548792906111269084906116c6565b92505081905550856001600160a01b0316826001600160a01b03167fa78a9be3a7b862d26933ad85fb11d80ef66b8f972d7cbba06621d583943a409887878760405161117493929190611679565b60405180910390a36040518581526000906001600160a01b038816907fddf252ad1be2c89b69c2b068fc378daa952ba7f163c4a11628f55a4df523b3ef9060200160405180910390a3505050505050565b600082601f8301126111d5578081fd5b81356001600160401b03808211156111ef576111ef61172e565b604051601f8301601f19908116603f011681019082821181831017156112175761121761172e565b8160405283815286602085880101111561122f578485fd5b8360208701602083013792830160200193909352509392505050565b60006020828403121561125c578081fd5b813561082681611744565b600060208284031215611278578081fd5b815161082681611744565b60008060408385031215611295578081fd5b82356112a081611744565b915060208301356112b081611744565b809150509250929050565b6000806000606084860312156112cf578081fd5b83356112da81611744565b925060208401356112ea81611744565b929592945050506040919091013590565b600080600080600060a08688031215611312578081fd5b853561131d81611744565b9450602086013561132d81611744565b93506040860135925060608601356001600160401b038082111561134f578283fd5b61135b89838a016111c5565b93506080880135915080821115611370578283fd5b5061137d888289016111c5565b9150509295509295909350565b6000806040838503121561139c578182fd5b82356113a781611744565b946020939093013593505050565b6000806000606084860312156113c9578283fd5b83356113d481611744565b92506020840135915060408401356001600160401b038111156113f5578182fd5b611401868287016111c5565b9150509250925092565b60008060008060808587031215611420578384fd5b843561142b81611744565b93506020850135925060408501356001600160401b038082111561144d578384fd5b611459888389016111c5565b9350606087013591508082111561146e578283fd5b5061147b878288016111c5565b91505092959194509250565b60008060408385031215611499578182fd5b8235915060208301356001600160401b038111156114b5578182fd5b6114c1858286016111c5565b9150509250929050565b60008151808452815b818110156114f0576020818501810151868301820152016114d4565b818111156115015782602083870101525b50601f01601f19169290920160200192915050565b6001600160a01b0387811682528681166020830152851660408201526060810184905260c060808201819052600090611551908301856114cb565b82810360a084015261156381856114cb565b9998505050505050505050565b6001600160a01b03929092168252602082015260400190565b6020808252825182820181905260009190848201906040850190845b818110156115ca5783516001600160a01b0316835292840192918401916001016115a5565b50909695505050505050565b60006020825261082660208301846114cb565b60208082526024908201527f4552433737373a207472616e7366657220746f20746865207a65726f206164646040820152637265737360e01b606082015260800190565b6020808252602c908201527f4552433737373a2063616c6c6572206973206e6f7420616e206f70657261746f60408201526b39103337b9103437b63232b960a11b606082015260800190565b60008482526060602083015261169260608301856114cb565b82810360408401526116a481856114cb565b9695505050505050565b600082198211156116c1576116c1611718565b500190565b6000828210156116d8576116d8611718565b500390565b6002810460018216806116f157607f821691505b6020821081141561171257634e487b7160e01b600052602260045260246000fd5b50919050565b634e487b7160e01b600052601160045260246000fd5b634e487b7160e01b600052604160045260246000fd5b6001600160a01b038116811461175957600080fd5b5056fea2646970667358221220468f7d86388f5b86739aca2601b45adb2a8300fe59b1c1991bd32ebfdec0702d64736f6c63430008020033",
  "immutableReferences": {},
  "source": "// SPDX-License-Identifier: MIT\npragma solidity ^0.8.0;\n\nimport \"../ERC777.sol\";\n\n/**\n * @dev {ERC777} token, including:\n *\n *  - Preminted initial supply\n *  - No access control mechanism (for minting/pausing) and hence no governance\n *\n * _Available since v3.4._\n */\ncontract ERC777PresetFixedSupply is ERC777 {\n    /**\n     * @dev Mints `initialSupply` amount of token and transfers them to `owner`.\n     *\n     * See {ERC777-constructor}.\n     */\n    constructor(\n        string memory name,\n        string memory symbol,\n        address[] memory defaultOperators,\n        uint256 initialSupply,\n        address owner\n    ) ERC777(name, symbol, defaultOperators) {\n        _mint(owner, initialSupply, \"\", \"\");\n    }\n}\n",
  "sourcePath": "C:\\Users\\cody.burns\\Documents\\github\\generative-art-node\\contracts\\token\\ERC777\\presets\\ERC777PresetFixedSupply.sol",
  "compiler": {
    "name": "solc",
    "version": "0.8.2+commit.661d1103.Emscripten.clang"
  },
  "schemaVersion": "3.4.3",
  "updatedAt": "2021-09-10T01:36:35.721Z",
  "devdoc": {
    "details": "{ERC777} token, including:  - Preminted initial supply  - No access control mechanism (for minting/pausing) and hence no governance _Available since v3.4._",
    "kind": "dev",
    "methods": {
      "allowance(address,address)": {
        "details": "See {IERC20-allowance}. Note that operator and allowance concepts are orthogonal: operators may not have allowance, and accounts with allowance may not be operators themselves."
      },
      "approve(address,uint256)": {
        "details": "See {IERC20-approve}. Note that accounts cannot have allowance issued by their operators."
      },
      "authorizeOperator(address)": {
        "details": "See {IERC777-authorizeOperator}."
      },
      "balanceOf(address)": {
        "details": "Returns the amount of tokens owned by an account (`tokenHolder`)."
      },
      "burn(uint256,bytes)": {
        "details": "See {IERC777-burn}. Also emits a {IERC20-Transfer} event for ERC20 compatibility."
      },
      "constructor": {
        "details": "Mints `initialSupply` amount of token and transfers them to `owner`. See {ERC777-constructor}."
      },
      "decimals()": {
        "details": "See {ERC20-decimals}. Always returns 18, as per the [ERC777 EIP](https://eips.ethereum.org/EIPS/eip-777#backward-compatibility)."
      },
      "defaultOperators()": {
        "details": "See {IERC777-defaultOperators}."
      },
      "granularity()": {
        "details": "See {IERC777-granularity}. This implementation always returns `1`."
      },
      "isOperatorFor(address,address)": {
        "details": "See {IERC777-isOperatorFor}."
      },
      "name()": {
        "details": "See {IERC777-name}."
      },
      "operatorBurn(address,uint256,bytes,bytes)": {
        "details": "See {IERC777-operatorBurn}. Emits {Burned} and {IERC20-Transfer} events."
      },
      "operatorSend(address,address,uint256,bytes,bytes)": {
        "details": "See {IERC777-operatorSend}. Emits {Sent} and {IERC20-Transfer} events."
      },
      "revokeOperator(address)": {
        "details": "See {IERC777-revokeOperator}."
      },
      "send(address,uint256,bytes)": {
        "details": "See {IERC777-send}. Also emits a {IERC20-Transfer} event for ERC20 compatibility."
      },
      "symbol()": {
        "details": "See {IERC777-symbol}."
      },
      "totalSupply()": {
        "details": "See {IERC777-totalSupply}."
      },
      "transfer(address,uint256)": {
        "details": "See {IERC20-transfer}. Unlike `send`, `recipient` is _not_ required to implement the {IERC777Recipient} interface if it is a contract. Also emits a {Sent} event."
      },
      "transferFrom(address,address,uint256)": {
        "details": "See {IERC20-transferFrom}. Note that operator and allowance concepts are orthogonal: operators cannot call `transferFrom` (unless they have allowance), and accounts with allowance cannot call `operatorSend` (unless they are operators). Emits {Sent}, {IERC20-Transfer} and {IERC20-Approval} events."
      }
    },
    "version": 1
  },
  "userdoc": {
    "kind": "user",
    "methods": {},
    "version": 1
  }
}