{
  "contractName": "MinimalForwarder",
  "abi": [
    {
      "inputs": [],
      "stateMutability": "nonpayable",
      "type": "constructor"
    },
    {
      "inputs": [
        {
          "internalType": "address",
          "name": "from",
          "type": "address"
        }
      ],
      "name": "getNonce",
      "outputs": [
        {
          "internalType": "uint256",
          "name": "",
          "type": "uint256"
        }
      ],
      "stateMutability": "view",
      "type": "function"
    },
    {
      "inputs": [
        {
          "components": [
            {
              "internalType": "address",
              "name": "from",
              "type": "address"
            },
            {
              "internalType": "address",
              "name": "to",
              "type": "address"
            },
            {
              "internalType": "uint256",
              "name": "value",
              "type": "uint256"
            },
            {
              "internalType": "uint256",
              "name": "gas",
              "type": "uint256"
            },
            {
              "internalType": "uint256",
              "name": "nonce",
              "type": "uint256"
            },
            {
              "internalType": "bytes",
              "name": "data",
              "type": "bytes"
            }
          ],
          "internalType": "struct MinimalForwarder.ForwardRequest",
          "name": "req",
          "type": "tuple"
        },
        {
          "internalType": "bytes",
          "name": "signature",
          "type": "bytes"
        }
      ],
      "name": "verify",
      "outputs": [
        {
          "internalType": "bool",
          "name": "",
          "type": "bool"
        }
      ],
      "stateMutability": "view",
      "type": "function"
    },
    {
      "inputs": [
        {
          "components": [
            {
              "internalType": "address",
              "name": "from",
              "type": "address"
            },
            {
              "internalType": "address",
              "name": "to",
              "type": "address"
            },
            {
              "internalType": "uint256",
              "name": "value",
              "type": "uint256"
            },
            {
              "internalType": "uint256",
              "name": "gas",
              "type": "uint256"
            },
            {
              "internalType": "uint256",
              "name": "nonce",
              "type": "uint256"
            },
            {
              "internalType": "bytes",
              "name": "data",
              "type": "bytes"
            }
          ],
          "internalType": "struct MinimalForwarder.ForwardRequest",
          "name": "req",
          "type": "tuple"
        },
        {
          "internalType": "bytes",
          "name": "signature",
          "type": "bytes"
        }
      ],
      "name": "execute",
      "outputs": [
        {
          "internalType": "bool",
          "name": "",
          "type": "bool"
        },
        {
          "internalType": "bytes",
          "name": "",
          "type": "bytes"
        }
      ],
      "stateMutability": "payable",
      "type": "function"
    }
  ],
  "bytecode": "0x61012060405234801561001157600080fd5b50604080518082018252601081526f26b4b734b6b0b62337b93bb0b93232b960811b6020808301918252835180850185526005815264302e302e3160d81b908201529151902060c08181527fae209a0b48f21c054280f2455d32cf309387644879d9acbd8ffc19916381188560e08190524660a081815286517f8b73c3c69bb8fe3d512ecc4cf759cc79239f7b179b0ffacaa9a75d522b39400f818801819052818901969096526060810193909352608080840192909252308382015286518084039091018152919092019094528351939092019290922090526101005260805160a05160c05160e05161010051610b2e61013360003960006104ce0152600061051d015260006104f80152600061047a015260006104a30152610b2e6000f3fe6080604052600436106100345760003560e01c80632d0335ab1461003957806347153f8214610082578063bf5d3bdb146100a3575b600080fd5b34801561004557600080fd5b5061006f6100543660046108ef565b6001600160a01b031660009081526020819052604090205490565b6040519081526020015b60405180910390f35b61009561009036600461091d565b6100d3565b604051610079929190610a04565b3480156100af57600080fd5b506100c36100be36600461091d565b610280565b6040519015158152602001610079565b600060606100e2858585610280565b61014e5760405162461bcd60e51b815260206004820152603260248201527f4d696e696d616c466f727761726465723a207369676e617475726520646f6573604482015271081b9bdd081b585d18da081c995c5d595cdd60721b60648201526084015b60405180910390fd5b61015d60808601356001610a84565b60008061016d60208901896108ef565b6001600160a01b03166001600160a01b03168152602001908152602001600020819055506000808660200160208101906101a791906108ef565b6001600160a01b0316606088013560408901356101c760a08b018b610a40565b6101d460208d018d6108ef565b6040516020016101e6939291906109c4565b60408051601f1981840301815290829052610200916109e8565b600060405180830381858888f193505050503d806000811461023e576040519150601f19603f3d011682016040523d82523d6000602084013e610243565b606091505b509092509050610258603f6060890135610aa8565b5a1161027457634e487b7160e01b600052600160045260246000fd5b90969095509350505050565b60008061039384848080601f01602080910402602001604051908101604052809392919081815260200183838082843760009201919091525061038d92507fdd8f4b70b0f4393e889bd39128a30628a78b61816a9eb8199759e7a349657e4891506102f0905060208a018a6108ef565b61030060408b0160208c016108ef565b60408b013560608c013560808d013561031c60a08f018f610a40565b60405161032a9291906109b4565b6040805191829003822060208301989098526001600160a01b0396871690820152949093166060850152608084019190915260a083015260c082015260e081019190915261010001604051602081830303815290604052805190602001206103fe565b90610452565b905060808501356000806103aa60208901896108ef565b6001600160a01b03166001600160a01b03168152602001908152602001600020541480156103f557506103e060208601866108ef565b6001600160a01b0316816001600160a01b0316145b95945050505050565b600061044c61040b610476565b8360405161190160f01b6020820152602281018390526042810182905260009060620160405160208183030381529060405280519060200120905092915050565b92915050565b6000806000610461858561056c565b9150915061046e816105dc565b509392505050565b60007f00000000000000000000000000000000000000000000000000000000000000004614156104c757507f0000000000000000000000000000000000000000000000000000000000000000610569565b50604080517f00000000000000000000000000000000000000000000000000000000000000006020808301919091527f0000000000000000000000000000000000000000000000000000000000000000828401527f000000000000000000000000000000000000000000000000000000000000000060608301524660808301523060a0808401919091528351808403909101815260c090920190925280519101205b90565b6000808251604114156105a35760208301516040840151606085015160001a610597878285856107dd565b945094505050506105d5565b8251604014156105cd57602083015160408401516105c28683836108c0565b9350935050506105d5565b506000905060025b9250929050565b60008160048111156105fe57634e487b7160e01b600052602160045260246000fd5b1415610609576107da565b600181600481111561062b57634e487b7160e01b600052602160045260246000fd5b14156106745760405162461bcd60e51b815260206004820152601860248201527745434453413a20696e76616c6964207369676e617475726560401b6044820152606401610145565b600281600481111561069657634e487b7160e01b600052602160045260246000fd5b14156106e45760405162461bcd60e51b815260206004820152601f60248201527f45434453413a20696e76616c6964207369676e6174757265206c656e677468006044820152606401610145565b600381600481111561070657634e487b7160e01b600052602160045260246000fd5b141561075f5760405162461bcd60e51b815260206004820152602260248201527f45434453413a20696e76616c6964207369676e6174757265202773272076616c604482015261756560f01b6064820152608401610145565b600481600481111561078157634e487b7160e01b600052602160045260246000fd5b14156107da5760405162461bcd60e51b815260206004820152602260248201527f45434453413a20696e76616c6964207369676e6174757265202776272076616c604482015261756560f01b6064820152608401610145565b50565b6000806fa2a8918ca85bafe22016d0b997e4df60600160ff1b0383111561080a57506000905060036108b7565b8460ff16601b1415801561082257508460ff16601c14155b1561083357506000905060046108b7565b6040805160008082526020820180845289905260ff881692820192909252606081018690526080810185905260019060a0016020604051602081039080840390855afa158015610887573d6000803e3d6000fd5b5050604051601f1901519150506001600160a01b0381166108b0576000600192509250506108b7565b9150600090505b94509492505050565b6000806001600160ff1b03831660ff84901c601b016108e1878288856107dd565b935093505050935093915050565b600060208284031215610900578081fd5b81356001600160a01b0381168114610916578182fd5b9392505050565b600080600060408486031215610931578182fd5b83356001600160401b0380821115610947578384fd5b9085019060c0828803121561095a578384fd5b9093506020850135908082111561096f578384fd5b818601915086601f830112610982578384fd5b813581811115610990578485fd5b8760208285010111156109a1578485fd5b6020830194508093505050509250925092565b6000828483379101908152919050565b6000838583375060609190911b6001600160601b0319169101908152601401919050565b600082516109fa818460208701610ac8565b9190910192915050565b60008315158252604060208301528251806040840152610a2b816060850160208701610ac8565b601f01601f1916919091016060019392505050565b6000808335601e19843603018112610a56578283fd5b8301803591506001600160401b03821115610a6f578283fd5b6020019150368190038213156105d557600080fd5b60008219821115610aa357634e487b7160e01b81526011600452602481fd5b500190565b600082610ac357634e487b7160e01b81526012600452602481fd5b500490565b60005b83811015610ae3578181015183820152602001610acb565b83811115610af2576000848401525b5050505056fea26469706673582212200db76dfb34fea94779d630ba7e14b6767953d896eeb0cb9bf3d341f279a8b20a64736f6c63430008020033",
  "immutableReferences": {
    "22357": [
      {
        "length": 32,
        "start": 1187
      }
    ],
    "22359": [
      {
        "length": 32,
        "start": 1146
      }
    ],
    "22361": [
      {
        "length": 32,
        "start": 1272
      }
    ],
    "22363": [
      {
        "length": 32,
        "start": 1309
      }
    ],
    "22365": [
      {
        "length": 32,
        "start": 1230
      }
    ]
  },
  "source": "// SPDX-License-Identifier: MIT\n\npragma solidity ^0.8.0;\n\nimport \"../utils/cryptography/ECDSA.sol\";\nimport \"../utils/cryptography/draft-EIP712.sol\";\n\n/**\n * @dev Simple minimal forwarder to be used together with an ERC2771 compatible contract. See {ERC2771Context}.\n */\ncontract MinimalForwarder is EIP712 {\n    using ECDSA for bytes32;\n\n    struct ForwardRequest {\n        address from;\n        address to;\n        uint256 value;\n        uint256 gas;\n        uint256 nonce;\n        bytes data;\n    }\n\n    bytes32 private constant _TYPEHASH =\n        keccak256(\"ForwardRequest(address from,address to,uint256 value,uint256 gas,uint256 nonce,bytes data)\");\n\n    mapping(address => uint256) private _nonces;\n\n    constructor() EIP712(\"MinimalForwarder\", \"0.0.1\") {}\n\n    function getNonce(address from) public view returns (uint256) {\n        return _nonces[from];\n    }\n\n    function verify(ForwardRequest calldata req, bytes calldata signature) public view returns (bool) {\n        address signer = _hashTypedDataV4(\n            keccak256(abi.encode(_TYPEHASH, req.from, req.to, req.value, req.gas, req.nonce, keccak256(req.data)))\n        ).recover(signature);\n        return _nonces[req.from] == req.nonce && signer == req.from;\n    }\n\n    function execute(ForwardRequest calldata req, bytes calldata signature)\n        public\n        payable\n        returns (bool, bytes memory)\n    {\n        require(verify(req, signature), \"MinimalForwarder: signature does not match request\");\n        _nonces[req.from] = req.nonce + 1;\n\n        (bool success, bytes memory returndata) = req.to.call{gas: req.gas, value: req.value}(\n            abi.encodePacked(req.data, req.from)\n        );\n        // Validate that the relayer has sent enough gas for the call.\n        // See https://ronan.eth.link/blog/ethereum-gas-dangers/\n        assert(gasleft() > req.gas / 63);\n\n        return (success, returndata);\n    }\n}\n",
  "sourcePath": "C:\\Users\\cody.burns\\Documents\\github\\generative-art-node\\contracts\\metatx\\MinimalForwarder.sol",
  "compiler": {
    "name": "solc",
    "version": "0.8.2+commit.661d1103.Emscripten.clang"
  },
  "schemaVersion": "3.4.3",
  "updatedAt": "2021-09-10T01:36:35.331Z",
  "devdoc": {
    "details": "Simple minimal forwarder to be used together with an ERC2771 compatible contract. See {ERC2771Context}.",
    "kind": "dev",
    "methods": {},
    "version": 1
  },
  "userdoc": {
    "kind": "user",
    "methods": {},
    "version": 1
  }
}