{
  "contractName": "NativeMetaTransaction",
  "abi": [
    {
      "anonymous": false,
      "inputs": [
        {
          "indexed": false,
          "internalType": "address",
          "name": "userAddress",
          "type": "address"
        },
        {
          "indexed": false,
          "internalType": "address payable",
          "name": "relayerAddress",
          "type": "address"
        },
        {
          "indexed": false,
          "internalType": "bytes",
          "name": "functionSignature",
          "type": "bytes"
        }
      ],
      "name": "MetaTransactionExecuted",
      "type": "event"
    },
    {
      "inputs": [],
      "name": "ERC712_VERSION",
      "outputs": [
        {
          "internalType": "string",
          "name": "",
          "type": "string"
        }
      ],
      "stateMutability": "view",
      "type": "function"
    },
    {
      "inputs": [],
      "name": "getChainId",
      "outputs": [
        {
          "internalType": "uint256",
          "name": "",
          "type": "uint256"
        }
      ],
      "stateMutability": "view",
      "type": "function"
    },
    {
      "inputs": [],
      "name": "getDomainSeperator",
      "outputs": [
        {
          "internalType": "bytes32",
          "name": "",
          "type": "bytes32"
        }
      ],
      "stateMutability": "view",
      "type": "function"
    },
    {
      "inputs": [
        {
          "internalType": "address",
          "name": "userAddress",
          "type": "address"
        },
        {
          "internalType": "bytes",
          "name": "functionSignature",
          "type": "bytes"
        },
        {
          "internalType": "bytes32",
          "name": "sigR",
          "type": "bytes32"
        },
        {
          "internalType": "bytes32",
          "name": "sigS",
          "type": "bytes32"
        },
        {
          "internalType": "uint8",
          "name": "sigV",
          "type": "uint8"
        }
      ],
      "name": "executeMetaTransaction",
      "outputs": [
        {
          "internalType": "bytes",
          "name": "",
          "type": "bytes"
        }
      ],
      "stateMutability": "payable",
      "type": "function"
    },
    {
      "inputs": [
        {
          "internalType": "address",
          "name": "user",
          "type": "address"
        }
      ],
      "name": "getNonce",
      "outputs": [
        {
          "internalType": "uint256",
          "name": "nonce",
          "type": "uint256"
        }
      ],
      "stateMutability": "view",
      "type": "function"
    }
  ],
  "bytecode": "0x60806040526000805460ff1916905534801561001a57600080fd5b506107728061002a6000396000f3fe60806040526004361061004a5760003560e01c80630c53c51c1461004f5780630f7e59701461007857806320379ee5146100a55780632d0335ab146100c45780633408e470146100fa575b600080fd5b61006261005d3660046104ee565b61010d565b60405161006f919061067c565b60405180910390f35b34801561008457600080fd5b50610062604051806040016040528060018152602001603160f81b81525081565b3480156100b157600080fd5b506001545b60405190815260200161006f565b3480156100d057600080fd5b506100b66100df3660046104d4565b6001600160a01b031660009081526002602052604090205490565b34801561010657600080fd5b50466100b6565b60408051606081810183526001600160a01b0388166000818152600260209081529085902054845283015291810186905261014b87828787876102fb565b6101a65760405162461bcd60e51b815260206004820152602160248201527f5369676e657220616e64207369676e617475726520646f206e6f74206d6174636044820152600d60fb1b60648201526084015b60405180910390fd5b6001600160a01b0387166000908152600260205260409020546101ca9060016103eb565b6001600160a01b0388166000908152600260205260409081902091909155517f5845892132946850460bff5a0083f71031bc5bf9aadcd40f1de79423eac9b10b9061021a90899033908a90610647565b60405180910390a1600080306001600160a01b0316888a604051602001610242929190610615565b60408051601f198184030181529082905261025c916105f9565b6000604051808303816000865af19150503d8060008114610299576040519150601f19603f3d011682016040523d82523d6000602084013e61029e565b606091505b5091509150816102ef5760405162461bcd60e51b815260206004820152601c60248201527b119d5b98dd1a5bdb8818d85b1b081b9bdd081cdd58d8d95cdcd99d5b60221b604482015260640161019d565b98975050505050505050565b60006001600160a01b0386166103615760405162461bcd60e51b815260206004820152602560248201527f4e61746976654d6574615472616e73616374696f6e3a20494e56414c49445f5360448201526424a3a722a960d91b606482015260840161019d565b600161037461036f876103fe565b61047c565b6040805160008152602081018083529290925260ff851690820152606081018690526080810185905260a0016020604051602081039080840390855afa1580156103c2573d6000803e3d6000fd5b505050602060405103516001600160a01b0316866001600160a01b031614905095945050505050565b60006103f7828461068f565b9392505050565b60006040518060800160405280604381526020016106fa604391398051602091820120835184830151604080870151805190860120905161045e950193845260208401929092526001600160a01b03166040830152606082015260800190565b6040516020818303038152906040528051906020012090505b919050565b600061048760015490565b60405161190160f01b602082015260228101919091526042810183905260620161045e565b80356001600160a01b038116811461047757600080fd5b803560ff8116811461047757600080fd5b6000602082840312156104e5578081fd5b6103f7826104ac565b600080600080600060a08688031215610505578081fd5b61050e866104ac565b9450602086013567ffffffffffffffff8082111561052a578283fd5b818801915088601f83011261053d578283fd5b81358181111561054f5761054f6106e3565b604051601f8201601f19908116603f01168101908382118183101715610577576105776106e3565b816040528281528b602084870101111561058f578586fd5b82602086016020830137918201602001859052509550505060408601359250606086013591506105c1608087016104c3565b90509295509295909350565b600081518084526105e58160208601602086016106b3565b601f01601f19169290920160200192915050565b6000825161060b8184602087016106b3565b9190910192915050565b600083516106278184602088016106b3565b60609390931b6001600160601b0319169190920190815260140192915050565b6001600160a01b03848116825283166020820152606060408201819052600090610673908301846105cd565b95945050505050565b6000602082526103f760208301846105cd565b600082198211156106ae57634e487b7160e01b81526011600452602481fd5b500190565b60005b838110156106ce5781810151838201526020016106b6565b838111156106dd576000848401525b50505050565b634e487b7160e01b600052604160045260246000fdfe4d6574615472616e73616374696f6e2875696e74323536206e6f6e63652c616464726573732066726f6d2c62797465732066756e6374696f6e5369676e617475726529a264697066735822122022360e8653814039672090417c2659b26603474a64216243c7c13651665434ed64736f6c63430008020033",
  "immutableReferences": {},
  "source": "// SPDX-License-Identifier: MIT\r\n\r\npragma solidity ^0.8.0;\r\n\r\nimport {SafeMath} from  \"../../utils/math/SafeMath.sol\";\r\nimport {EIP712Base} from \"./EIP712Base.sol\";\r\n\r\ncontract NativeMetaTransaction is EIP712Base {\r\n    using SafeMath for uint256;\r\n    bytes32 private constant META_TRANSACTION_TYPEHASH = keccak256(\r\n        bytes(\r\n            \"MetaTransaction(uint256 nonce,address from,bytes functionSignature)\"\r\n        )\r\n    );\r\n    event MetaTransactionExecuted(\r\n        address userAddress,\r\n        address payable relayerAddress,\r\n        bytes functionSignature\r\n    );\r\n    mapping(address => uint256) nonces;\r\n\r\n    /*\r\n     * Meta transaction structure.\r\n     * No point of including value field here as if user is doing value transfer then he has the funds to pay for gas\r\n     * He should call the desired function directly in that case.\r\n     */\r\n    struct MetaTransaction {\r\n        uint256 nonce;\r\n        address from;\r\n        bytes functionSignature;\r\n    }\r\n\r\n    function executeMetaTransaction(\r\n        address userAddress,\r\n        bytes memory functionSignature,\r\n        bytes32 sigR,\r\n        bytes32 sigS,\r\n        uint8 sigV\r\n    ) public payable returns (bytes memory) {\r\n        MetaTransaction memory metaTx = MetaTransaction({\r\n            nonce: nonces[userAddress],\r\n            from: userAddress,\r\n            functionSignature: functionSignature\r\n        });\r\n\r\n        require(\r\n            verify(userAddress, metaTx, sigR, sigS, sigV),\r\n            \"Signer and signature do not match\"\r\n        );\r\n\r\n        // increase nonce for user (to avoid re-use)\r\n        nonces[userAddress] = nonces[userAddress].add(1);\r\n\r\n        emit MetaTransactionExecuted(\r\n            userAddress,\r\n            payable(msg.sender),\r\n            functionSignature\r\n        );\r\n\r\n        // Append userAddress and relayer address at the end to extract it from calling context\r\n        (bool success, bytes memory returnData) = address(this).call(\r\n            abi.encodePacked(functionSignature, userAddress)\r\n        );\r\n        require(success, \"Function call not successful\");\r\n\r\n        return returnData;\r\n    }\r\n\r\n    function hashMetaTransaction(MetaTransaction memory metaTx)\r\n        internal\r\n        pure\r\n        returns (bytes32)\r\n    {\r\n        return\r\n            keccak256(\r\n                abi.encode(\r\n                    META_TRANSACTION_TYPEHASH,\r\n                    metaTx.nonce,\r\n                    metaTx.from,\r\n                    keccak256(metaTx.functionSignature)\r\n                )\r\n            );\r\n    }\r\n\r\n    function getNonce(address user) public view returns (uint256 nonce) {\r\n        nonce = nonces[user];\r\n    }\r\n\r\n    function verify(\r\n        address signer,\r\n        MetaTransaction memory metaTx,\r\n        bytes32 sigR,\r\n        bytes32 sigS,\r\n        uint8 sigV\r\n    ) internal view returns (bool) {\r\n        require(signer != address(0), \"NativeMetaTransaction: INVALID_SIGNER\");\r\n        return\r\n            signer ==\r\n            ecrecover(\r\n                toTypedMessageHash(hashMetaTransaction(metaTx)),\r\n                sigV,\r\n                sigR,\r\n                sigS\r\n            );\r\n    }\r\n}",
  "sourcePath": "C:\\Users\\cody.burns\\Documents\\github\\generative-art-node\\contracts\\common\\meta-transactions\\NativeMetaTransaction.sol",
  "compiler": {
    "name": "solc",
    "version": "0.8.2+commit.661d1103.Emscripten.clang"
  },
  "schemaVersion": "3.4.3",
  "updatedAt": "2021-09-10T01:36:35.172Z",
  "devdoc": {
    "kind": "dev",
    "methods": {},
    "version": 1
  },
  "userdoc": {
    "kind": "user",
    "methods": {},
    "version": 1
  }
}